:1006ED003C473EBBB6D3ADCAB9D3C3003C473ED69B
:1006FD00F7C8CBA3ACCED2CFC8CDCBCFC2C1CB0028
:10070D003C473EC4E3BAC3A3ACD6F7C8CB003C47C5
:10071D003EB5C6D2D1B4F2BFAA003C473EB5C6D253
:10072D00D1B9D8B1D5003C473EB5E7CAD3BBFAD253
:10073D00D1B4F2BFAA003C473EB5E7CAD3BBFAD24B
:10074D00D1B9D8B1D5003C473EB1F9CFE4D2D1B43F
:10075D00F2BFAA003C473EB1F9CFE4D2D1B9D8B12E
:10076D00D5003C473EBFD5CCF5D2D1B4F2BFAA00DF
:10077D003C473EBFD5CCF5D2D1B9D8B1D5003C4719
:10078D003ED2D1C8ABB2BFB4F2BFAA003C473ED2F5
:0B079D00D1C8ABB2BFB9D8B1D5000085
:06000E0001590001580039
:100A9500E4F5467592FFF591C294C295C296C29748
:100AA500120DB0120CCC120C50120D21E47859F62F
:100AB5007BFF7A0679ED120D48C3E55794F4E556A8
:100AC500648094814012E4F556F557F558D2C27BFF
:100AD500FF7A0679F9120D487859E61460DB24F19E
:100AE500601824DF60D32431702078597601120B09
:100AF50074EF70C57859763180BF120006785BEFC8
:100B0500F6120440E47859F680AFE47859F680A9E6
:100DB000B2C2120DDAB2C2120DDAB2C2120DDAB23A
:0C0DC000C2120DDAB2C2120DDAB2C22269
:100CCC007580FFE4F59075A0FF75B0FF75C0FF53FC
:100CDC008E7F438901F58A758C28C28DD28CD2A95E
:0C0CEC00C2C3D289D2A8D2AF75C13D228C
:0A0DE70000007F057E49DEFEDFFC00
:010DF10022DF
:080D6D008F518E508D4F8C4E0A
:100D7500E4F552F553F554F555784E74FF1205DB3D
:0B0D8500EC4D4E4F6005120DE780EEB4
:010D90002240
:0C0DDA007F117ED07D1BDDFEDEFCDFFA09
:010DE60022EA
:03000300020C915B
:100C9100C0E0C0F0C083C082C0D075D000C000C029
:100CA10001C002C003C004C005C006C0071208E1AC
:100CB100D007D006D005D004D003D002D001D00097
:0B0CC100D0D0D082D083D0F0D0E03241
:100440008F47E5477013755801F556F5577BFF7ACE
:1004500007790D120D48C2C222E5586401600302FB
:1004600005B1E5471205F904FE01050E02051E045B
:10047000052E14053D15054C16055B17056A180574
:100480007919058E1A05A31B05A31C05A31D05A339
:100490001E05A31F05A32005A32105A32205A32351
:1004A00005A32405A32505A32605A32705A3280541
:1004B000A32905A32A05A32B05A32C05A32D05A37A
:1004C0002E05A32F05A33005A33105A33205A333C1
:1004D00005A33405A33505A33605A33705A33805C1
:1004E000A33905A33A05A33B05A33C05A33D05A3FA
:1004F0003E05A33F05A34005A341000005B1E4F577
:1005000056F557D2977BFF7A07791B0205AEE4F5C3
:1005100056F557C2977BFF7A0779270205AEE4F5B7
:1005200056F557D2967BFF7A0779330205AEE4F58C
:1005300056F557C2967BFF7A0779438071E4F556EA
:10054000F557D2957BFF7A0779538062E4F556F52B
:1005500057C2957BFF7A0779618053E4F556F557CA
:10056000D2947BFF7A07796F8044E4F556F557C241
:10057000947BFF7A07797D8035E4F556F557D2975D
:10058000D296D295D2947BFF7A07798B8020E4F5BE
:1005900056F557C297C296C295C2947BFF7A0779E7
:1005A00099800BE4F556F5577BFF7A0779A7120D72
:0205B0004822DF
:03000B00020D9152
:100D9100C0E0C0D0758A00758C2875C13DE558B496
:0F0DA10001080557E55770020556D0D0D0E03253
:100026007869616F20616920746F6E6720787565E5
:10003600000000006B61692064656E6700000000C7
:1000460000000000000000006775616E2064656EA8
:100056006700000000000000000000006461206BE3
:100066006169206469616E207368690000000000A0
:100076006775616E206269206469616E20736869C4
:10008600000000006461206B61692062696E672070
:100096007869616E670000006775616E206269208D
:1000A60062696E67207869616E6700006461206B23
:1000B6006169206B6F6E67207469616F00000000D4
:1000C6006775616E206269206B6F6E672074696167
:1000D6006F0000007175616E206275206461206B8F
:1000E60061690000000000007175616E2062752074
:1000F6006775616E20626900000000000000000064
:1001060000000000000000000000000000000000E9
:1001160000000000000000000000000000000000D9
:1001260000000000000000000000000000000000C9
:1001360000000000000000000000000000000000B9
:100406000000000000000000000102041415161789
:1004160018191A1B1C1D1E1F2021222324252627DE
:1004260028292A2B2C2D2E2F3031323334353637CE
:0A04360038393A3B3C3D3E3F40415F
:100C5000D2B57F057E007D007C00120D6DC2B57F90
:100C6000057E007D007C00120D6DD2B57F057E00F3
:100C70007D007C00120D6DC2A17F057E007D007C91
:100C800000120D6DD2A17F057E007D007C00020D5B
:010C90006DF6
:100845007F06120DFD7D357F17120DF27F0A7E00A2
:100855007D007C00120D6D7F06120DFD7D037F89E5
:10086500120DF27F057E007D007C00120D6D7D432B
:100875007FCF120DF27F057E007D007C00120D6D8D
:100885007D027FCB120DF27D0A7F11120DF2E4FD80
:100895007F1E120DF27D3F7F19120DF27D487F1BE1
:1008A500120DF27D1F7F1D120DF27F0A7E007D0065
:1008B5007C00120D6D7D047FCD120DF27F057E004B
:1008C5007D007C00120D6DE4FD7FB9120DF27D4FA8
:0C08D5007FCF120DF27DFF7F6F020DF24D
:100B1500120845E4FD7FBD120DF27D487F17120DC9
:100B2500F27F0A7E007D007C00120D6D7D807F3C8A
:100B3500120DF27D077F3E120DF27DFF7F38120DFB
:100B4500F27D077F3A120DF2E4FD7F40120DF27D32
:100B5500087F42120DF2E4FD7F44120DF27D087FFD
:0F0B650046120DF27F017E007D007C00020D6DB7
:1008E100E4F545C2A87F2B120DFD785AA607E4FD59
:1008F1007F29120DF2E4FD7F02120DF2785AE630E3
:10090100E42D7FB2120DFDEF642170237FBF120D24
:10091100FDBF351B7FBA120DFD8F45E545D3940010
:10092100400DE545D394045006785976108004783B
:10093100597611E4FD7F2B120DF2E4FD7F1C120D9F
:10094100F2E4FD7F29120DF2E4FD7F02120DF2E4C3
:10095100FD7F2B120DF2E4FD7FBA120DF2E4FD7F53
:10096100BC120DF27D017F08120DF2E4FD7F081229
:040971000DF2D2A809
:01097500225F
:100B7400E4F547F548F54712001C7F327E007D00FE
:100B84007C00120D6D1207A8EF700280117F0A7E9F
:100B9400007D007C00120D6D120976EF7010120CAE
:100BA400507F327E007D007C00120D6D80057548FB
:0E0BB4000180090547E547C3940540BBAF48E3
:010BC2002210
:100CF800E4F54DF54C7FB2120DFDBF2105754D0190
:100D080080147F0A7E007D007C00120D6D054CE585
:080D18004CC3940A40DFAF4D0B
:010D200022B0
:03001C00020B15BF
:10097600C2A87D437F35120DF27D097F1C120DF250
:100986007D207FBD120DF27D017F08120DF27F01E1
:100996007E007D007C00120D6DE4FD7F08120DF2D5
:1009A6007F017E007D007C00120D6D120CF8EF7049
:1009B60002FF227D0B7F1C120DF27DFF7FB2120D0E
:1009C600F27F017E007D007C00120D6D7D067F3773
:1009D600120DF27F017E007D007C00120D6D7D06FA
:1009E6007F37120DF27F057E007D007C00120D6DB3
:1009F6007D107F29120DF2E4FD7FBD120DF2D2A803
:030A06007F01224B
:1007A800754A01E4F549120CF8EF7005F54A02089C
:1007B80042E54990040E93FD7FC1120DF2E4FD7FDE
:1007C800C3120DF27D047F08120DF27F017E007DB9
:1007D800007C00120D6DE4FD7F08120DF27F017E92
:1007E800007D007C00120D6DE4F54B75F014E549B1
:1007F800A42426F582E5F03400F583E582254BF53F
:1008080082E43583F583E493FD600E7F05120DF2D3
:10081800054BE54BC3941440D2AD4B7FB9120DF292
:100828007DFF7FB2120DF27D047F37120DF205496C
:0C083800E549C3943250030207AEAF4AFA
:010844002291
:050006007FC5020DFDA5
:0B0DF200908100EFF0908000EDF022F7
:0B0DFD00908100EFF0908000E0FF22EA
:07001400021125800110001C
:100D2100759850438920AE11AF12AB07AA06E4F9BA
:100D3100F8FF7EE1FDFC120C0C1205CB8F8B8F8D21
:070D4100D28ED2ACD2AF222A
:0E0DCC00C2ACC2998F993099FDC299D2AC2267
:100D48008B488A49894AAB48AA49A94A1205B26020
:100D580013054AE54A7002054914F91205B2FF1253
:050D68000DCC80E22229
:03002300020BC30A
:100BC300C0E0C0D075D00830983AC298741325108D
:100BD300F8A6990510E510C394314003751000E59C
:100BE30010C39403401E74132510F8E6B4F815746B
:100BF300122510F8E6B4F80C74112510F8E6B4F8D1
:090C03000375C760D0D0D0E032C7
:03000000020A09E8
:0C0A0900787FE4F6D8FD75815B020A508E
:1005B200BB010689828A83E0225002E722BBFE0247
:0905C200E32289828A83E493227A
:100C0C00C2D5E830E70FB2D5E4C39BFBE49AFAE413
:100C1C0099F9E498F8EC30E717B2D5120C421206A9
:100C2C005BE4C39BFBE49AFAE499F9E498F880033B
:100C3C0012065B30D50DE4C39FFFE49EFEE49DFDE0
:040C4C00E49CFC2206
:0E05CB00C3E49FFFE49EFEE49DFDE49CFC2241
:1005D9007401FF3395E0FEFDFC080808E6CF2FF60D
:1005E90018E6CE3EF618E6CD3DF618E6CC3CF622E6
:1005F900D083D082F8E4937012740193700DA3A391
:1006090093F8740193F5828883E4737402936860A4
:06061900EFA3A3A380DFA4
:100A1500020A95E493A3F8E493A34003F68001F258
:100A250008DFF48029E493A3F85407240CC8C333E2
:100A3500C4540F4420C8834004F456800146F6DFB1
:100A4500E4800B010204081020408090000EE47E33
:100A5500019360BCA3FF543F30E509541FFEE493A6
:100A6500A360010ECF54C025E060A840B8E493A36D
:100A7500FAE493A3F8E493A3C8C582C8CAC583CA98
:100A8500F0A3C8C582C8CAC583CADFE9DEE780BE50
:01001B0000E4
:10061F0075F008758200EF2FFFEE33FECD33CDCC92
:10062F0033CCC58233C5829BED9AEC99E582984015
:10063F000CF582EE9BFEED9AFDEC99FC0FD5F0D6F2
:10064F00E4CEFBE4CDFAE4CCF9A88222B800C1B91C
:10065F000059BA002DEC8BF084CFCECDFCE5F0CB5A
:10066F00F97818EF2FFFEE33FEED33FDEC33FCEB93
:10067F0033FB10D703994004EB99FB0FD8E5E4F94E
:10068F00FA227818EF2FFFEE33FEED33FDEC33FC3B
:10069F00C933C910D7059BE99A4007EC9BFCE99A2F
:1006AF00F90FD8E0E4C9FAE4CCFB2275F010EF2F74
:1006BF00FFEE33FEED33FDCC33CCC833C810D70774
:1006CF009BEC9AE899400AED9BFDEC9AFCE899F8AF
:0E06DF000FD5F0DAE4CDFBE4CCFAE4C8F92242
:00000001FF
