:020000040800F2
:10000000E818002035070008390500083B050008FE
:100010003F050008430500084705000800000000F0
:100020000000000000000000000000004B05000878
:100030004D050008000000004F05000851050008AC
:100040004F0700084F0700084F0700084F07000838
:100050004F0700084F0700084F0700084F07000828
:100060004F0700084F0700084F0700084F07000818
:100070004F0700084F0700084F0700084F07000808
:100080004F0700084F0700084F0700084F070008F8
:100090004F0700084F0700084F0700084F070008E8
:1000A0004F0700084F0700084F0700084F070008D8
:1000B0004F070008575200084F0700084F07000875
:1000C0004F0700084F0700084F0700084F070008B8
:1000D0004F0700083D2A0008BF2B00080150000808
:1000E0004F0700084F0700084F0700084F07000898
:1000F0004F0700084F0700084F0700084F07000888
:100100004F0700084F0700081D5800084F07000858
:100110004F0700084F0700084F0700082D5200083E
:100120004F0700084F0700084F0700084F07000857
:10013000DFF80CD006F0F8F9004800474501000848
:10014000E81800201CB5CB4D0020CB490860CB49F6
:1001500008604FF4A06000F0FFFA02F0ABFB4FF430
:10016000165002F01FFC03F0F0FA03F056F802F00C
:1001700023FE03F0A7FC02F085FE03F035FE4FF4EA
:10018000165004F06CFF4FF4165002F09DFC03F083
:10019000C2FB05F014FB02F043FF05F08DFC05F0F7
:1001A00015FC05F073FC0DE0B5A006F001FC4FF462
:1001B0007A7002F0BCFBB7A006F0FAFB4FF47A703D
:1001C00002F0B5FBB94804F016FB0028ECD1B8A04A
:1001D00006F0EEFBBA480068A0F164010522B948B8
:1001E00003F0D4FCB6480068A0F132010322B648FF
:1001F00003F0CCFCA04AB5A1B34805F09BFC9E4897
:10020000B1490268B2A006F0D3FBAE49B9A006F02E
:10021000CFFB002005F026FC2BE102F0EBFD0446AD
:10022000002C3DD00A2002F082FB00BF02F0E2FD6C
:100230000028FBD1422C19D006DC232C09D02A2C13
:1002400008D0412C24D10BE0432C15D0442C1FD1D5
:1002500018E024E00020AB49087005F0ACF81EE07F
:100260000020A849087005F096FA18E00020A5497A
:10027000087005F09AFA12E00020A249087005F013
:1002800024F90CE000209F49087005F0A6F906E06B
:1002900001209C490870204604F0EEFF00BF00BF1B
:1002A0009948006808B104F012FD984810232022F4
:1002B00000210090084603F00AFA102001210323D0
:1002C000CDE90010924800210268242003F043F990
:1002D0001020022300906848002102685A2003F091
:1002E00032F88C481023202202210090002003F0D5
:1002F000EEF9102001210323CDE9001086480221E8
:100300000268242003F027F91020022300905B48A4
:10031000194602685A2003F016F88048102320225C
:1003200004210090002003F0D2F9102001210323C2
:10033000CDE900107A4804210268242003F00BF96B
:10034000284605F009FE0646102003233246042104
:1003500000905A2002F0F7FF72480068012856D139
:1003600045480068801C05F0E1FD064668480168C4
:10037000304605F039FE09D24FF4C0716A4800F0EA
:100380008EFD4021684800F08CFD14E03A49096870
:10039000881E05F0CBFD06465D480168304605F035
:1003A0002DFE08D24FF4C0715F4800F07AFD402165
:1003B0005D4800F074FD31480068401D05F0B6FD51
:1003C000064655480168304605F00EFE09D2402128
:1003D000554800F064FD4FF40071534800F061FD92
:1003E0002FE026480068401D05F0A0FD06464A485B
:1003F0000168304605F002FE23D240214A4800F051
:1004000050FD4FF40071484800F049FD19E045489F
:100410000068B0B94548006820B94FF400714248FF
:1004200000F03FFD4248006818B940213E4800F006
:1004300038FD4048006820B94FF4C0713A4800F0D8
:1004400030FD29463648006805F0D8FD04D2202149
:10045000354800F024FD09E029463148006805F0E0
:10046000C3FD03D22021304800F01BFD0A2002F01A
:100470005EFAD2E60000C842B4000020B8000020B6
:10048000CEB4C1ACBDD3C9CF4153363038210D0AEB
:1004900000000000D4D9B4CEB3A2CAD4C1ACBDD33D
:1004A000D6D02E2E2E2E0D0A00000000980000201F
:1004B000C1ACBDD3C9CF4153363038210D0A00003D
:1004C00094000020C2000020BC0000202564000031
:1004D00073657454656D7056616C436861723A253A
:1004E000732C73657454656D7056616C3A25640D98
:1004F0000A0000007077645F496E69743A25730DD5
:100500000A000000A40000201801214234860008DF
:10051000AC00002074860008B0000020B4860008FB
:10052000A8000020C800002000100140CC000020DE
:10053000D0000020D4000020704700BFFEE700BFBD
:10054000FEE700BFFEE700BFFEE770477047704759
:10055000704700000CB50020019000906C480068C6
:1005600040F480306A49086000BF6948006800F4C0
:10057000003000900198401C0190009818B9019833
:10058000B0F5A06FF1D16248006800F4003010B1FE
:100590000120009001E0002000900098012843D144
:1005A0005C48006840F010005A490860084600683E
:1005B00020F0030008600846006840F00200086070
:1005C00053484068524948600846406848600846B9
:1005D000406840F4806048600846406820F47C1021
:1005E00048600846406840F4E810486008460068E3
:1005F00040F08070086000BF4548006800F000705F
:100600000028F9D04248406820F003004049486083
:100610000846406840F00200486000BF3C4840681F
:1006200000F00C000828F9D10CBD10B5FFF792FFBF
:1006300010BD10B53648006840F00100344908602C
:100640000846406834490840314948600846006817
:10065000324908402E4908600846006820F480208E
:1006600008600846406820F4FE0048604FF41F0010
:100670008860FFF7DAFF4FF000602949086010BD7D
:1006800010B5002100200022214B5B6803F00C0113
:1006900021B1042906D0082928D107E0214B224C9A
:1006A000236027E01F4B204C236023E0184B5B683E
:1006B00003F47010164B5B6803F48032022303EBE3
:1006C000904022B9194B4343174C23600DE0104B67
:1006D0005B6803F4003323B1144B4343124C236093
:1006E00003E0104B4343104C236003E00D4B0E4CD2
:1006F000236000BF00BF064B5B68C3F303130C4CC1
:10070000E15C094B1B68CB40074C236010BD000027
:1007100000100240002002400000FFF8FFFFF6FE3C
:1007200008ED00E000127A000000002000093D0002
:10073000040000200648804706480047FEE7FEE721
:10074000FEE7FEE7FEE7FEE7FEE7FEE7FEE7FEE781
:10075000330600083101000831490143314A116074
:10076000704770B5002100230F22C47804B32D4CCC
:10077000246804F4E064C4F5E064210AC1F10403D0
:10078000CA40447804FA03F18478144021430901F3
:10079000254C0678A155047804F01F050124AC40CF
:1007A00005786D11AD0005F1E025C5F8004109E0BF
:1007B000047804F01F050124AC401C4D0678761126
:1007C00045F8264070BD1A4A0A400243154B1B1FCC
:1007D0001A60704739B1134A121D12680243114B57
:1007E0001B1D1A6006E00F4A121D126882430D4B52
:1007F0001B1D1A607047042808D14FF0E0210969D9
:1008000041F004014FF0E022116107E04FF0E021D8
:10081000096921F004014FF0E022116170470000E6
:100820000000FA050CED00E000E400E080E100E0EB
:1008300080FFFF1F10B50446FA48844208D1012109
:10084000401500F055FD0021601500F051FD17E046
:10085000F548844208D10121001500F049FD00212E
:10086000201500F045FD0BE0F048844208D101213D
:10087000C80300F03DFD00214FF4004000F038FDBA
:1008800010BD30B50246002000235068E84C2040DF
:100890000D790C6844EA0524204350609068E54CCB
:1008A0002040D1E902542C434D7944EA45042043C9
:1008B0009060D06A20F470000C7C641EE4B2234384
:1008C00040EA0350D06230BD0021016001714171E6
:1008D0008160C16001210174704721B1826842F0DA
:1008E0000102826003E0826822F0010282607047A8
:1008F00021B1826842F48072826003E0826822F44F
:1009000080728260704710B50023CBB21AB1446880
:100910001C43446002E044689C43446010BD81680D
:1009200041F0080181607047014600208A6802F0AA
:1009300008020AB1012000E000207047816841F000
:10094000040181607047014600208A6802F00402B9
:100950000AB1012000E00020704721B1826842F412
:10096000A002826003E0826822F4A00282607047E5
:10097000014600208A6802F480020AB1012000E0EA
:100980000020704710B50A4600210023416821F479
:100990006041531E41EA4331416010BD21B14268BC
:1009A00042F40062426003E0426822F40062426066
:1009B0007047F0B504460D4600200021092D11DDD9
:1009C000E068A5F10A0606EB4607072606FA07F1D6
:1009D0008843A5F10A0606EB460603FA06F108432A
:1009E000E0600CE0206905EB4507072606FA07F1F1
:1009F000884305EB450603FA06F108432061072A00
:100A00000FDA606B561E06EB86071F2606FA07F103
:100A10008843561E06EB860605FA06F10843606316
:100A200022E00D2A0FDA206BD61F06EB86071F2661
:100A300006FA07F18843D61F06EB860605FA06F18B
:100A40000843206310E0E06AA2F10D0606EB86077A
:100A50001F2606FA07F18843A2F10D0606EB86066B
:100A600005FA06F10843E062F0BD21B1826842F464
:100A70008012826003E0826822F4801282607047F4
:100A80000146C86C80B2704766484C3000687047B9
:100A900021B1426842F48062426003E0426822F47D
:100AA00080624260704721B1426842F480524260E5
:100AB00003E0426822F48052426070470A460021F7
:100AC000816821F4E04111438160704721B182685F
:100AD00042F40042826003E0826822F400428260B5
:100AE000704721B1826842F40212826003E082689A
:100AF00022F4021282607047014600208A6802F4E4
:100B000000120AB1012000E000207047F0B5044651
:100B10001546002000220026092911DDE068A1F118
:100B20000A0707EB470C072707FA0CF29043A1F1DD
:100B30000A0707EB470703FA07F21043E0600CE0EF
:100B4000206901EB410C072707FA0CF2904301EBF7
:100B5000410703FA07F210432061A06BC0F301566E
:100B6000EF1C06F1010CA7EB0C0707EB870C1F2706
:100B700007FA0CF29043EF1C06F1010CA7EB0C07EF
:100B800007EB870701FA07F21043A063F0BD10B529
:100B90000A4600210023816B21F44011531E41EAD3
:100BA0000351816310BD08B5002300930090009BA2
:100BB0000B440093009B1A6008BD08B50246002054
:100BC0000090009201F12800009B184400900098CA
:100BD000006880B208BD0A4600214168164B1940E2
:100BE0001143416070474162826270470A460021AA
:100BF000416821F01F0111434160704740B109492C
:100C00000831096841F40001064A0832116007E022
:100C100004490831096821F40001024A08321160D0
:100C2000704700000024014000280140003C0140C2
:100C3000FFFEF0FFFDF7F1FFFFFD3FFF0246002042
:100C400013680B400BB1012000E000207047CA433D
:100C50000260704770B502460020002300240B128A
:100C60005568CEB205EA060415681D4015B10CB1F1
:100C7000012000E0002070BD00220A12D34303606F
:100C80007047000010B50446CC48844208D10121C9
:100C9000042000F02DFB0021042000F029FB46E099
:100CA000C748844208D10121082000F021FB00211F
:100CB000082000F01DFB3AE0C248844208D101211F
:100CC000102000F015FB0021102000F011FB2EE099
:100CD000BD48844208D10121202000F009FB0021F9
:100CE000202000F005FB22E0B848844208D1012111
:100CF000402000F0FDFA0021402000F0F9FA16E053
:100D0000B348844208D10121802000F0F1FA00218B
:100D1000802000F0EDFA0AE0AE48844207D10121BC
:100D2000801500F0E5FA0021A01500F0E1FA10BDF1
:100D300010B50121084600F0DBFA0021012000F087
:100D4000D7FA10BD2DE9F04102460025002600200B
:100D500000230024002791F803C00CF00F0591F840
:100D600003C00CF0100CBCF1000F03D091F802C0CE
:100D70004CEA050591F800C0BCF1000F31D01468B1
:100D800000202BE04FF0010C0CFA00F3B1F800C08A
:100D90000CEA03069E4220D183004FF00F0C0CFAA0
:100DA00003F7BC4305FA03FC4CEA040491F803C0C2
:100DB000BCF1280F06D14FF0010C0CFA00FCC2F870
:100DC00014C00AE091F803C0BCF1480F05D14FF000
:100DD000010C0CFA00FCC2F810C0401C0828D1D34A
:100DE0001460B1F800C0BCF1FF0F34DD546800207E
:100DF0002EE000F1080C4FF0010808FA0CF3B1F8EE
:100E000000C00CEA03069E4221D183004FF00F0C74
:100E10000CFA03F7BC4305FA03FC4CEA040491F80E
:100E200003C0BCF1280F05D100F1080C08FA0CF83A
:100E3000C2F8148091F803C0BCF1480F07D100F14B
:100E4000080C4FF0010808FA0CF8C2F81080401C9A
:100E50000828CED35460BDE8F0814FF6FF710180C1
:100E6000022181700421C1707047024600209368FE
:100E70000B400BB1012000E000207047014688685C
:100E800080B2704702460020D3680B400BB10120AE
:100E900000E0002070470146C86880B270470161D9
:100EA0007047416170470AB1016100E041617047DC
:100EB000C16070474FF480320A4382618161826170
:100EC00082698269704702460020434B18684FF6DA
:100ED0008073184040EA021008433F4B1860704787
:100EE0003E49C8617047F0B50A460023002400213E
:100EF000002500F00046B6F1004F02D1364EF169F0
:100F000001E0354E7168C0F3034583B200F440162A
:100F1000B6F5401F08D121F070612F4E766826F09B
:100F200070662D4F7E6012E000F48016B6F5801FCB
:100F300006D1032606FA05F4A14341F0706106E0EC
:100F4000460D360103FA06F6B14341F0706122B155
:100F5000460D360103FA06F6314300F00046B6F1BD
:100F6000004F02D11C4EF16101E01B4E7160F0BDDB
:100F700030B500228B071C0F0F2303FA04F2164B27
:100F800008338C1053F824309343134C08348D10DD
:100F900044F8253023468C1053F824308C07240F56
:100FA00000FA04F423430C4C08348D1044F8253027
:100FB00030BD0A49DC31086070470000000801407C
:100FC000000C0140001001400014014000180140D5
:100FD000001C0140002001400000014000002042B0
:100FE000DF48006840F00100DD49086008464068BD
:100FF000DC490840DA49486008460068DA49084098
:10100000D74908600846006820F480200860084638
:10101000406820F4FE0048604FF41F00886070476D
:10102000CF49096821F48031CD4A11601146096821
:1010300021F480211160B0F5803F03D0B0F5802FFE
:101040000ED106E0C649096841F48031C44A1160F6
:1010500007E0C349096841F4A021C14A116000E0DA
:1010600000BF00BF704710B50146002200230020DA
:101070004A11012A02D1BA4C236806E0022A02D1A1
:10108000B74C236A01E0B64C636A01F01F020124E9
:1010900094401C400CB1012000E0002010BD38B588
:1010A000002000900024002500BF3120FFF7DBFF67
:1010B00005460098401C00900098B0F5A06F01D044
:1010C000002DF2D03120FFF7CEFF08B1012400E05F
:1010D0000024204638BD01460020A14A106820F0B7
:1010E000F80040EAC10010607047A04908607047EE
:1010F000024600209A4B586820F47C1042EA010313
:101100001843974B586070479849086670470146E6
:101110000020934A506820F0030008435060704755
:101120008F48406800F00C007047014600208C4A50
:10113000506820F0F00008435060704701460020DE
:10114000874A506820F4E0600843506070470146C9
:101150000020834A506820F4605040EAC10050608B
:10116000704729B17E4A527A02437D4B5A7204E09D
:101170007B4A527A82437A4B5A7270477B49D83104
:101180000860704701460020754A506820F44040CE
:101190000843506070470021714A20321170704A34
:1011A00082F82010012802D004280AD104E001218D
:1011B0006B4A2032117005E00521694A2032117016
:1011C00000E000BF00BF704769490860704764498C
:1011D000096A0143624A11627047654944390860EF
:1011E000704730B500210022002400235C4D6D685B
:1011F00005F00C0121B1042905D0082923D105E00F
:101200005C4D056022E05B4D05601FE0544D6D684C
:1012100005F47012524D6D6805F48034022505EB1B
:1012200092421CB9544D554305600BE04C4D6D681E
:1012300005F400351DB1504D5543056002E04D4D9C
:101240005543056002E04B4D056000BF00BF444DB3
:101250006D6805F0F0010909484D6B5C0568DD40DB
:1012600045603F4D6D6805F4E061090A434D6B5CD4
:101270004568DD4085603A4D6D6805F46051C90AE6
:101280003E4D6B5C4568DD40C560354D6D6805F4CD
:101290004041890B3A4D6B5CC568B5FBF3F50561C0
:1012A00030BD29B12E4A526902432D4B5A6104E0E8
:1012B0002B4A526982432A4B5A61704729B1284A06
:1012C00092690243264B9A6104E0254A926982435F
:1012D000234B9A61704729B1214AD2690243204BBE
:1012E000DA6104E01E4AD26982431D4BDA6170471D
:1012F00029B11B4AD2680243194BDA6004E0184A4C
:10130000D2688243164BDA60704729B1144A1269D9
:101310000243134B1A6104E0114A12698243104BD5
:101320001A61704712494039086070470F49C86414
:1013300070470B49C87170470948406A40F0807097
:1013400007494862704701460020054A92680A40F2
:101350000AB1012000E000207047014988727047FF
:10136000001002400000FFF8FFFFF6FE00004242BE
:101370008004424200127A0000093D00140000205F
:101380002400002010B50446BE48844208D1012143
:101390008014FFF7ADFF0021A014FFF7A9FF16E0AE
:1013A000B948844208D101210014FFF7AEFF0021A3
:1013B0002014FFF7AAFF0AE0B448844207D10121B4
:1013C000C013FFF7A2FF0021E013FFF79EFF10BD3F
:1013D00010B50022028802F441520B884C88234346
:1013E0008C882343CC8823430C8923434C89234393
:1013F0008C892343CC8923431A430280838B4FF289
:10140000FF74234083830B8A038210BD2DE9F04FC4
:1014100085B005460C464FF0000902274FF0000842
:101420004FF0010B0026B246A88B4FF24001084056
:10143000A88302202884B5F81C90A068022801D156
:1014400000BF38E0A08810B94FF0010B01E04FF069
:10145000020B8D48854200D100E000BF6846FFF7CF
:10146000C0FEDDF800A0E088B0F5007F0AD14FEAA9
:101470001A2000EB80004000A168B0FBF1F0401D95
:1014800086B20BE04FEA4B10BAFBF0F000EB8000A5
:101490004000A168B0FBF1F0401D86B20A20B6FB07
:1014A000F0F606F00108A6EB0800C0F34F074FF670
:1014B000FF7000EA0828022F01DBFF2F02DD022760
:1014C0004FF00008E08840EA080038432884A088EC
:1014D000A1890843618808432188084340F40060DB
:1014E00040EA0909A5F81C9005B0BDE8F08F00217D
:1014F000018041808180C180018141818181C181E0
:101500000721018270470021018041808180C180D4
:101510000221816000218181704721B1028842F05F
:101520004002028004E002884FF6BF731A40028036
:10153000704721B1828B42F48062828304E0828B07
:101540004FF6FF331A408283704730B500240023E2
:101550000C110125A540ABB21AB185881D438580C9
:1015600002E085889D43858030BD1AB183880B4396
:10157000838002E083888B4383807047818170473A
:101580000146888970474FF6FF62914204D0028875
:1015900042F48072028004E002884FF6FF631A4032
:1015A0000280704721B1828842F00402828004E008
:1015B00082884FF6FB731A408280704702884FF290
:1015C000FF731A40028002880A4302807047018834
:1015D00041F480510180704721B1028842F40052E9
:1015E000028004E002884DF6FF731A4002807047C3
:1015F00002460020012901D0108B00E0908A70473C
:101600000146088A7047B1F5804F04D1028842F440
:101610008042028004E002884BF6FF731A40028089
:1016200070470246002013890B400BB1012000E0F7
:1016300000207047CA4302817047F0B5024600207F
:1016400000240023002501F00F070126BE40B4B29C
:101650000B1101269E40B3B2968806EA030516894F
:10166000264016B10DB1012000E00020F0BD10B5FC
:10167000002201F00F040123A3409AB2D343038157
:1016800010BD00000030014000380040003C004028
:1016900010B50446FE48844208D10121C014FFF76A
:1016A00027FE0021E014FFF723FEC4E0B4F1804FD1
:1016B00008D101210846FFF728FE00210120FFF78D
:1016C00024FEB8E0F348844208D101210220FFF74C
:1016D0001CFE00210220FFF718FEACE0EE48844219
:1016E00008D101210420FFF710FE00210420FFF79C
:1016F0000CFEA0E0E948844208D101210820FFF750
:1017000004FE00210820FFF700FE94E0E448844234
:1017100008D101211020FFF7F8FD00211020FFF76C
:10172000F4FD88E0DF48844208D101212020FFF742
:10173000ECFD00212020FFF7E8FD7CE0DA48844240
:1017400008D101214014FFF7D3FD00216014FFF7F9
:10175000CFFD70E0D548844209D10121C804FFF7CC
:10176000C7FD00214FF40020FFF7C2FD63E0D04821
:10177000844209D101210805FFF7BAFD00214FF489
:101780008010FFF7B5FD56E0CA48844209D1012117
:101790004805FFF7ADFD00214FF40010FFF7A8FD4D
:1017A00049E0C548844208D101214020FFF7ADFD42
:1017B00000214020FFF7A9FD3DE0C048844208D148
:1017C00001218020FFF7A1FD00218020FFF79DFD72
:1017D00031E0BB48844208D101218015FFF795FD17
:1017E0000021A015FFF791FD25E0B648844209D1FC
:1017F00001210804FFF77CFD00214FF48030FFF742
:1018000077FD18E0B048844209D101214804FFF770
:101810006FFD00214FF40030FFF76AFD0BE0AB488D
:10182000844208D101218804FFF762FD00214FF4B2
:101830008020FFF75DFD10BD00220288944B984286
:101840000ED0994B98420BD0B0F1804F08D0914BFD
:10185000984205D0904B984202D0904B984204D1C8
:101860004FF68F731A404B881A438D4B984207D01E
:101870008C4B984204D04FF6FF431A40CB881A4352
:1018800002808B8883850B880385814B98420BD01F
:10189000854B984208D08B4B984205D08A4B984292
:1018A00002D08A4B984201D10B7A038601238382AE
:1018B000704770B5002400220023058C4FF6FE7699
:1018C00035400584028C8388048B4FF68F752C403D
:1018D000B51E2C400D882C43751E2A400D892A43C5
:1018E0004D882A436A4DA8420BD06F4DA84208D0BC
:1018F000744DA84205D0744DA84202D0734DA84241
:1019000013D14FF6F7752A404D892A434FF6FB75E0
:101910002A408D882A434FF6FF652B404FF6FF552E
:101920002B408D892B43CD892B4383800483CD8825
:101930008586028470BD70B5002400220023058CCA
:101940004FF6EF7635400584028C8388048B48F689
:10195000FF752C404FF6FF452C400D884FF6FF7663
:1019600006EA05252C434FF6DF752A400D8906EA65
:1019700005152A434D8806EA05152A43444DA84219
:1019800002D0494DA8421DD14FF67F752A404D899E
:101990004FF6FF7606EA05152A434FF6BF752A4033
:1019A0008D8806EA05152A434FF6FF352B404FF286
:1019B000FF752B408D8906EA85052B43CD8906EA04
:1019C00085052B4383800483CD880587028470BD01
:1019D00070B5002400220023058C4FF6FF663540C9
:1019E0000584028C8388848B4FF68F752C404FF6CC
:1019F000FC752C400D882C434FF6FF552A400D896D
:101A00004FF6FF7606EA05252A434D8806EA0525A6
:101A10002A431F4DA84202D0234DA8421DD14FF2A8
:101A2000FF752A404D894FF6FF7606EA05252A43C1
:101A30004FF6FF352A408D8806EA05252A434EF6E3
:101A4000FF752B404DF6FF752B408D8906EA051575
:101A50002B43CD8906EA05152B4383808483CD88EB
:101A60008587028470BD70B5002200230024058C98
:101A70004EF6FF7635400584038C8488828B48F6C9
:101A8000FF752A404FF6FF452A400D8820E00000F0
:101A9000002C01400004004000080040000C004001
:101AA000001000400014004000340140004C014090
:101AB000005001400054014000180040001C00404C
:101AC0000020004000400140004401400048014027
:101AD0004FF6FF7606EA05252A434DF6FF752B40A3
:101AE0000D8906EA05352B434D8806EA05352B435B
:101AF000FA4DA84202D0FA4DA84208D14BF6FF7524
:101B00002C408D894FF6FF7606EA85152C4384809C
:101B10008283CD88A0F84050038470BD828B4FF241
:101B2000FF331A408283828B4FF6FF7303EA01234F
:101B30001A4382837047F0B50C46154600220021F7
:101B40000026078C4EF6FF7C07EA0C070784828B81
:101B5000018C4FF6FF7707EA043640F6FF473A401C
:101B60004FF6FF7707EA05273A434FF6FF7707EA74
:101B700003373A43D94FB8420ED0D94FB8420BD0B1
:101B8000B0F1804F08D0D74FB84205D0D64FB842F9
:101B900002D0D64FB84206D14DF6FF77394046F411
:101BA0008057394305E047F6FF57394044F48057E2
:101BB000394382830184F0BD828B4FF6F3731A4060
:101BC0008283828B0A4382837047F0B50C461546A8
:101BD000002200210026078C4FF6FF6C07EA0C0755
:101BE0000784828B018C4FF6FF7707EA04264FF6B5
:101BF0000C773A404FF6FF7707EA03172F433A4333
:101C0000B64FB8420ED0B64FB8420BD0B0F1804FAD
:101C100008D0B44FB84205D0B34FB84202D0B34F4A
:101C2000B84206D14FF6FF57394046F48077394322
:101C300005E04FF2FF57394044F4807739438283FF
:101C40000184F0BD028B4FF2FF331A400283028BF6
:101C50004FF6FF7303EA01231A4302837047F0B57E
:101C60000C461546002200210026078C4FF6EF7C1B
:101C700007EA0C070784028B018C4FF6FF7707EA0F
:101C8000041640F6FF473A404FF6FF7707EA03375E
:101C90003A434FF6FF7707EA05273A438F4FB8429A
:101CA0000ED08F4FB8420BD0B0F1804F08D08D4F7F
:101CB000B84205D08C4FB84202D08C4FB84206D102
:101CC0004FF6DF77394046F01007394305E04FF60D
:101CD0005F77394044F01007394302830184F0BD37
:101CE000028B4FF6F3731A400283028B0A4302837E
:101CF0007047F0B50C46154600220021068C4FF6C1
:101D0000FE773E400684028B018C4FF60C76324003
:101D10007E1C06EA03162E433243704EB0420ED0AC
:101D20006F4EB0420BD0B0F1804F08D06D4EB04234
:101D300005D06D4EB04202D06C4EB04206D14FF687
:101D4000FD76314044F00106314305E04FF6F5766B
:101D5000314044F00106314302830184F0BD70B587
:101D600005460C465D4885420ED05D4885420BD045
:101D7000B5F1804F08D05B48854205D05A4885426E
:101D800002D05A48854200D100E000BF208850B9F7
:101D90002389A28861882846FFF7ABFFE18828469F
:101DA000FFF79EFF25E0208804280AD12389A28816
:101DB00061882846FFF753FFE1882846FFF742FF76
:101DC00017E0208808280AD12389A288618828463C
:101DD000FFF7FBFEE1882846FFF7EEFE09E02389C6
:101DE000A28861882846FFF7A6FEE1882846FFF70B
:101DF00095FE70BD2DE9F04105460C4600260127F1
:101E0000608808B9022600E00026A088012801D1D8
:101E1000022700E001272088A0B92389A2886188D1
:101E20002846FFF766FFE1882846FFF759FF238918
:101E30003A4631462846FFF712FFE1882846FFF769
:101E400001FF13E02389A28861882846FFF707FF76
:101E5000E1882846FFF7F6FE23893A4631462846B0
:101E6000FFF747FFE1882846FFF73AFFBDE8F0811A
:101E70000A884B881A438B881A43CB881A430B89EC
:101E80001A434B891A438B891A43A0F844207047A0
:101E90004FF6FF71818000210180C1804180017275
:101EA00070470021018041808180C1800181418192
:101EB0008181C181704700210180418001218180A1
:101EC0000021C18001817047002101804180818013
:101ED000C18001814181818170470000002C014057
:101EE000003401400004004000080040000C0040A5
:101EF00021B1028842F00102028004E002884FF61C
:101F0000FE731A400280704731B1B0F8442042F4A9
:101F10000042A0F8442005E0B0F84420C2F30E02CD
:101F2000A0F8442070471AB183890B43838102E0F3
:101F300083898B43838170478182704741EA020322
:101F4000A0F8483070471AB183890B43838102E0BF
:101F500083898B438381704701894FF6F872114062
:101F6000018170470A46002101894FF68F7319409D
:101F700011430181704730B504460D46294620467D
:101F8000FFF7F0FF208940F00700208130BD2DE9E8
:101F9000F04104460D4616461F46602D06D13B46CD
:101FA000012231462046FFF75AFE05E03B4601225A
:101FB00031462046FFF79DFE29462046FFF7D2FF17
:101FC000208940F007002081BDE8F08130B50C4643
:101FD00000210189C9B24FF6FF7505EA03251543B3
:101FE00025432943018130BD2DE9F04105460E46C8
:101FF00017469846002443463A4631462846FFF79E
:10200000E5FF2C894FF6F870044044F007044FF6C2
:102010008F70044044F070042C81BDE8F081F0B56D
:1020200004460D4616461F463B4632462946204684
:10203000FFF7CCFF208940F480402081F0BD01856E
:10204000828270470A46002101884FF68F7319403B
:10205000114301807047F0B50C4615461E4600211D
:10206000002200230189028B038C4FF6F877394058
:1020700021434FF6FC473A4040F201173A434FF6EE
:10208000DD773B404FF6FF7707EA06172F433B43C8
:10209000018102830384F0BD0A460021018B4FF6C3
:1020A0008F7319401143018370470A460021018B49
:1020B00048F6FF7319404FF6FF7303EA02231943F2
:1020C000018370470A460021818B4FF68F731940B8
:1020D0001143818370470A460021818B48F6FF73C4
:1020E00019404FF6FF7303EA0223194381837047B7
:1020F00021B1028842F08002028004E002884FF69B
:102100007F731A400280704721B1828842F0040236
:10211000828004E082884FF6FB731A408280704709
:1021200021B1828842F00802828004E082884FF662
:10213000F7731A408280704721B1828842F0010211
:10214000828004E082884FF6FE731A4082807047D6
:102150000A460021018B4FF6F773194011430183A2
:1021600070470A460021018B4FF2FF7319404FF66A
:10217000FF7303EA02231943018370470A460021D3
:10218000818B4FF6F77319401143818370470A46DC
:102190000021818B4FF2FF7319404FF6FF7303EA62
:1021A00002231943818370470A460021018B4FF6B1
:1021B000FB7319401143018370470A460021018BCC
:1021C0004FF6FF3319404FF6FF7303EA022319431A
:1021D000018370470A460021818B4FF6FB7319403B
:1021E0001143818370470A460021818B4FF6FF33EC
:1021F00019404FF6FF7303EA0223194381837047A6
:102200000A460021018B4FF67F7319401143018369
:1022100070470A460021018BC1F30E014FF6FF7390
:1022200003EA02231943018370470A460021818B88
:102230004FF67F7319401143818370470A4600218E
:10224000818BC1F30E014FF6FF7303EA022319439A
:10225000818370470A460021018C4FF6FD731940B7
:102260001143018470470A460021018C4FF6F77331
:1022700019401143018470470A460021018C4FF632
:10228000DF7319404FF6FF7303EA02131943018409
:1022900070470A460021018C4FF67F7319404FF6B4
:1022A000FF7303EA02131943018470470A460021B1
:1022B000018C4FF6FF5319404FF6FF7303EA0223D8
:1022C0001943018470470A460021018C4FF2FF73C5
:1022D00019404FF6FF7303EA022319430184704744
:1022E0000A460021018C4DF6FF7319404FF6FF732B
:1022F00003EA023319430184704730B500230124F7
:102300008C40A3B2048C9C430484048C02FA01F533
:10231000ADB22C43048430BD30B5002304248C407E
:10232000A3B2048C9C430484048C02FA01F5ADB280
:102330002C43048430BD70B50346002000241846A9
:10234000183001258D40ACB21D8CA5431D8409B108
:10235000082909D100EB6100056825F070050560CA
:102360000568154305600EE00D1FC5F34E052844B2
:10237000056825F4E045056005684FF6FF7606EA36
:1023800002263543056070BD21B1028842F0020289
:10239000028004E002884FF6FD731A400280704705
:1023A00021B1028842F00402028004E002884FF664
:1023B000FB731A400280704721B1828842F080028C
:1023C000828004E082884FF67F731A4082807047D3
:1023D00002884FF6F7731A40028002880A4302808F
:1023E000704782884FF68F731A40828082880A4332
:1023F0008280704702894FF6F8731A400281028981
:102400000A430281704702894FF67F731A400281A6
:1024100002890A4302817047818470478185704731
:10242000818670470187704781877047A0F8401008
:10243000704702884FF6FF431A40028002880A4321
:10244000028070470146888E70470146088F7047AA
:102450000146888F70470146B1F840007047014639
:10246000888C70470146088D704702460020138A09
:102470000B400BB1012000E000207047CA430282EC
:10248000704730B50246002000230024158A05EA73
:102490000103958905EA010413B10CB1012000E0A4
:1024A000002030BDCA4302827047000010B50446C8
:1024B000FB48844209D101218803FEF719FF00215E
:1024C0004FF48040FEF714FF32E0F648844209D111
:1024D00001214804FEF719FF00214FF40030FEF7F8
:1024E00014FF25E0F048844209D101218804FEF759
:1024F0000CFF00214FF48020FEF707FF18E0EB48A7
:10250000844209D10121C804FEF7FFFE00214FF4E7
:102510000020FEF7FAFE0BE0E548844208D10121D5
:102520000805FEF7F2FE00214FF48010FEF7EDFEE5
:1025300010BD2DE9F04786B005460E460024A246A0
:1025400000BFA1460027B08900B100BF2F462C8AEA
:102550004CF6FF700440F08804432C82AC894EF6A0
:10256000F3100440B088318908437189084304435B
:10257000AC81AC8A4FF6FF400440B0890443AC8282
:1025800001A8FEF72EFEC648874202D1DDF810A052
:1025900001E0DDF80CA0A88900F4004040B10AEB8E
:1025A000CA0000EB0A1031684900B0FBF1F807E0FF
:1025B0000AEBCA0000EB0A1031688900B0FBF1F8A1
:1025C0006420B8FBF0F004012009642101FB1089AC
:1025D000A88900F4004040B1322000EBC900B0FBF4
:1025E000F1F000F00700044308E0322000EB09108E
:1025F0006421B0FBF1F000F00F0004432C8106B021
:10260000BDE8F0874FF41651016000218180C18040
:1026100001810C21418100218181704710B5024662
:102620000020108A4FF2FF0318400B884C88234388
:102630008C882343CC8823431843108210BD00218B
:10264000018041808180C180704721B1828942F43C
:102650000052828104E082894DF6FF731A40828124
:102660007047F0B50346002400260025002040F600
:102670006A17B94200D100BF1846C1F3421401F0F5
:102680001F06012707FA06F5012C01D10C3004E0E2
:10269000022C01D1103000E014301AB107682F432A
:1026A000076002E00768AF430760F0BD1AB1838A94
:1026B0000B43838202E0838A8B4383827047028AC2
:1026C0004FF6F0731A400282028A0A430282704770
:1026D00082894FF2FF731A40828182890A43828184
:1026E000704721B1828942F00202828104E082892E
:1026F0004FF6FD731A4082817047028A4FF6DF73EE
:102700001A400282028A0A430282704721B1028A79
:1027100042F48042028204E0028A4BF6FF731A40C0
:1027200002827047C1F308028280704701468888A0
:10273000C0F308007047818941F001018181704731
:10274000028BD2B20283028B42EA012202837047DB
:10275000028B02F47F420283028B0A43028370479A
:1027600021B1828A42F02002828204E0828A4FF6FE
:10277000DF731A408282704721B1828A42F01002D0
:10278000828204E0828A4FF6EF731A408282704799
:1027900021B1828A42F00802828204E0828A4FF6E6
:1027A000F7731A408282704721B1828942F4004255
:1027B000828103E08289C2F30E028281704721B1D7
:1027C000828A42F40062828204E0828A4FF2FF73BE
:1027D0001A4082827047828A4FF6FB731A408282C7
:1027E000828A0A438282704721B1828A42F00202C1
:1027F000828204E0828A4FF6FD731A40828270471B
:1028000002460020B1F5007F00D100BF13880B40C5
:102810000BB1012000E00020704701F40072B2F516
:10282000007F00D100BFCA430280704770B50246E6
:10283000002400230025002040F66A16B14200D192
:1028400000BFC1F3421501F01F03012606FA03F38E
:10285000012D02D19689334006E0022D02D1168A5D
:10286000334001E0968A33400C12012606FA04F444
:102870001688344013B10CB1012000E0002070BD77
:1028800010B50022002340F66A14A14200D100BF17
:102890000A1201249440A3B2DC43048010BD00005E
:1028A000003801400044004000480040004C004017
:1028B0000050004010B56FF00400FDF79CFF2E485B
:1028C00000682E49B0FBF1F02D49087008460078E9
:1028D00000EB4001C1EBC0104FF6FF7101EAC000F0
:1028E0002849088010BD0146254A12784A434FF016
:1028F000E0235A6100229A611A46126942F00102ED
:102900001A6100BF4FF0E022106900F001021AB115
:1029100000F48032002AF5D04FF0E022126922F054
:1029200001024FF0E0231A6100229A6170470146CC
:10293000144A12884A434FF0E0235A6100229A61F8
:102940001A46126942F001021A6100BF4FF0E022FC
:10295000106900F001021AB100F48032002AF5D0AB
:102960004FF0E022126922F001024FF0E0231A61D9
:1029700000229A61704700000000002000127A00D7
:10298000280000202A00002000BF704700BF4A4AEC
:10299000128802F04002002AF9D0C2B2464B1B1D39
:1029A0001A80704710B586B00446012144F2040035
:1029B000FEF784FC4FF40070ADF8140003208DF88E
:1029C000160018208DF8170005A93C48FEF7BAF943
:1029D0004FF48060ADF8140004208DF8170005A9AD
:1029E0003648FEF7AFF925208DF8000003208DF85A
:1029F00001008DF8020001208DF803006846FDF704
:102A0000B0FE01940020ADF80800ADF80A00ADF862
:102A10000C00ADF810000C20ADF80E0001A92648FE
:102A2000FFF787FD012240F225512348FFF719FEE9
:102A300001212148FFF709FE06B010BD10B540F294
:102A400025511D48FFF7F2FE10B31B48FFF76EFE3D
:102A5000C4B21B48008800F40040C8B91848008878
:102A600000F4804060B10A2C03D000201449088093
:102A700020E01348008840F400401149088019E024
:102A80000D2C06D10E48008840F480400C49088087
:102A900010E00B480088C0F30D000A490C540848A8
:102AA0000088401C0649088008460088C72801DDC8
:102AB0000020088010BD00000038014000080140DF
:102AC00030000020E000002010B586B0044601214F
:102AD0004804FEF700FC01210420FEF7EFFB5248FA
:102AE000FFF7E4FC0420ADF8140018208DF817005F
:102AF00003208DF8160005A94C48FEF723F908209D
:102B0000ADF8140004208DF8170005A94748FEF71A
:102B100019F901940020ADF810000C20ADF80E005A
:102B20000020ADF80C00ADF80A00ADF80800262032
:102B30008DF8000001208DF8030003208DF80100BE
:102B400004208DF802006846FDF70BFE01A9364807
:102B5000FFF7EFFC012240F225513348FFF781FDDA
:102B6000012260213048FFF77CFD01212E48FFF74C
:102B70006CFD06B010BD10B504463C2C03D10120FD
:102B80002B4908601AE03E2C12D129480068012820
:102B90000ED10020264908602649086026480178A1
:102BA00026A003F005FF2448007802F075FE05E03A
:102BB0001F480068012801D11F48047010BD10B5DE
:102BC00040F225511848FFF731FE58B140F2255127
:102BD0001548FFF755FE1448FFF7A8FDC4B220467C
:102BE000FFF7C9FF10BD10B5044621460E48FFF798
:102BF00099FD00BF80210C48FFF702FE0028F9D0A4
:102C000010BD10B504460BE014F8011B0648FFF791
:102C100089FD00BF40210448FFF7F2FD0028F9D0EC
:102C200020780028F0D110BD004400400008014089
:102C3000380000203C0000203400002072656365ED
:102C4000697665446174613A25630A0070B505468A
:102C5000002405E0601CC4B2C82C01DD002070BD5A
:102C600002213B48FEF7DDFC0028F3D02946384816
:102C7000FEF784FC002405E0601CC4B2C82C01DD12
:102C80000020ECE701213248FEF7CBFC0028F3D00E
:102C90002F48FEF775FCC0B2E1E700B587B001210F
:102CA0000820FEF70BFB01210846FEF707FB012178
:102CB000C803FEF710FB3820ADF8180018208DF877
:102CC0001B0003208DF81A0006A92248FEF73AF8E7
:102CD00038212048FEF7E3F80020ADF804004FF457
:102CE0008270ADF806000020ADF808000220ADF8B3
:102CF0000A000120ADF80C004002ADF80E003820AB
:102D0000ADF810000020ADF812000720ADF8140057
:102D100001A90F48FEF75CFB01210D48FEF7FDFB02
:102D2000FF20FFF793FF07B000BD10B50446084829
:102D300000884FF6C771084005490880084600889A
:102D40002043088001210248FEF7E7FB10BD000088
:102D5000003C0040000C0140F8B504460D46164604
:102D60003F48844204D101210420FEF7A7FA16E06F
:102D70003C48844204D101210820FEF79FFA0EE06E
:102D80003948844204D101211020FEF797FA06E069
:102D90003648844203D101212020FEF78FFAA8B2E1
:102DA000ADF800008DF8036003208DF8020069463D
:102DB0002046FDF7C7FFF8BD10B5002409E02C4AF6
:102DC00052F824102B4A52F824001022FFF7C4FFB7
:102DD000641C042CF3DB002409E0274A52F8241079
:102DE000264A52F824004822FFF7B6FF641C042C40
:102DF000F3DB10BD70B500252DE0002414E0AC42DB
:102E000008D01B4A32F8242091B21A4A52F8240002
:102E1000FEF745F8164A32F8252091B2154A52F8C5
:102E20002500FEF73EF8641C042CE8DB00240FE0CC
:102E3000114A32F8242091B2104A52F82400FEF7C9
:102E400014F820B90E4800EB8500005D70BD641CCD
:102E5000042CEDDB6D1C042DCFDB0020F6E7000019
:102E600000080140000C0140001001400014014026
:102E70005000002040000020700000206000002072
:102E80008000002000B587B001214FF40170FEF7EB
:102E900015FA4FF40040FEF775F901214802FEF7DC
:102EA00027FA00214FF40070FEF722FA1020ADF847
:102EB000040000208DF8070001A95248FDF742FFE9
:102EC0005148FDF7B7FC002002908DF80C008DF8FA
:102ED0000D004FF4602004900020059001208DF833
:102EE000180002A94848FDF7CCFC01214648FDF72F
:102EF000F4FC4548FDF713FD00BF4348FDF714FD02
:102F00000028FAD14048FDF719FD00BF3E48FDF703
:102F10001AFD0028FAD107B000BD10B50723012221
:102F200004213948FDF745FD01213748FDF715FD1E
:102F300000BF02213448FDF781FE0028F9D0324855
:102F4000FDF79EFD10BD70B506460024002508E083
:102F5000FFF7E3FF204484B20520FFF7E8FC681C7C
:102F6000C5B20A2DF4DB0A2094FBF0F084B22046AF
:102F700070BD2DE9F0470024A1460420FFF7E3FFD0
:102F800004460520FFF7D3FC204602F0D8FF074691
:102F90004FF066321D4B02F057FF054603F008F86C
:102FA00081464846BDE8F0872DE9F84FFFF7E1FF7D
:102FB0000646FFF7DEFF0746154902F0D2FE05463A
:102FC000314602F003FF0446124902F0CDFE82466C
:102FD0001049504602F0FAFE009002F0D6FF8046FB
:102FE0004FF080420C4B04F007FA06464FF0804247
:102FF0000A4B02F029FF044602F0DAFF83465846E6
:10300000BDE8F88F000801400024014066664A3F91
:1030100033335340000020418D9700C0332F83404D
:1030200008B501211020FEF749F94FF47070ADF892
:10303000000010208DF8030003208DF8020069467F
:103040000148FDF77FFE08BD0010014010B54FF4A8
:103050008041F748FDF723FF4FF40051F448FDF796
:103060001EFF4FF40051F248FDF71BFF4FF4804163
:10307000EF48FDF716FF10BD10B54FF48041EC4846
:10308000FDF70DFF4FF40051E948FDF70AFF4FF43B
:103090000051E748FDF703FF10BD10B54FF4804124
:1030A000E348FDF7FCFE4FF48041E148FDF7F9FEEF
:1030B00010BD2DE9F04105462C464FF48041DC4817
:1030C000FDF7EFFE00261CE0274607F08007802F63
:1030D00004D1B901D648FDF7E2FE04E04FF40051F7
:1030E000D348FDF7DEFE6006040E4FF48041D04861
:1030F000FDF7D5FE4FF48041CD48FDF7D2FE701CA0
:10310000C6B2082EE0DBBDE8F08110B50446FFF73B
:103110009DFF7820FFF7CDFFFFF7BFFF0020FFF7EF
:10312000C8FFFFF7BAFF2046FFF7C3FFFFF7B5FF61
:10313000FFF7A2FF10BD10B50446FFF787FF782008
:10314000FFF7B7FFFFF7A9FF4020FFF7B2FFFFF738
:10315000A4FF2046FFF7ADFFFFF79FFFFFF78CFFAF
:1031600010BD70B504460D461DB1E0B2FFF7E3FF98
:1031700002E0E0B2FFF7C9FF70BD70B5064600245B
:1031800018E004F1B0000021FFF7EBFF0021084632
:10319000FFF7E7FF00211020FFF7E3FF002505E020
:1031A00001213046FFF7DDFF681CC5B2802DF7DB3B
:1031B000601CC4B2082CE4DB70BD70B504460D463B
:1031C00005F1B0000021FFF7CCFF102141EA1410F7
:1031D0000021FFF7C6FF04F00F000021FFF7C1FF39
:1031E00070BD10B500218D20FFF7BBFF002114201A
:1031F000FFF7B7FF0021AF20FFF7B3FF10BD10B5F9
:1032000000218D20FFF7ADFF00211020FFF7A9FF5F
:103210000021AE20FFF7A5FF10BD70B5002418E017
:1032200004F1B0000021FFF79CFF00210846FFF7E2
:1032300098FF00211020FFF794FF002505E00121F1
:103240000020FFF78EFF681CC5B2822DF7DB601CE3
:10325000C4B2082CE4DB70BD70B5002418E004F1A2
:10326000B0000021FFF77DFF00210846FFF779FF3E
:1032700000211020FFF775FF002505E00121084619
:10328000FFF76FFF681CC5B2802DF7DB601CC4B26E
:10329000082CE4DB70BD2DE9F04707460E4690464A
:1032A000994600250024A8F12000C5B27F2F02DD39
:1032B0000027B01CC6B2B9F1100F24D131463846F0
:1032C000FFF77BFF002408E004EB0511594A505C2E
:1032D0000121FFF746FF601CC4B2082CF4DB701C10
:1032E000C1B23846FFF769FF002409E004EB05117D
:1032F0000831504A505C0121FFF733FF601CC4B213
:10330000082CF3DB12E031463846FFF756FF002465
:103310000AE005EB4501484A02EB4101085D012145
:10332000FFF71FFF601CC4B2062CF2DBBDE8F0877C
:1033300010B50246012000E050430B1EA1F101042C
:10334000E1B2F9D110BD2DE9FF4F81B0804617469B
:1033500099460E9D012612E031460A20FFF7E8FF4C
:1033600097FBF0F0012808DA31460A20FFF7E0FF6A
:1033700097FBF0F0002800DB03E0701CC6B2102EB3
:10338000EADD00BFB1454FDB002F4EDA2B462D2280
:1033900040460299FFF77FFF7F42002426E0301B62
:1033A000401EC1B20A20FFF7C3FF97FBF0F00A21CD
:1033B00090FBF1F201FB120000F0FF0A202090FBCD
:1033C000F5F0AB4605EBDB7100EB6100801E611C84
:1033D00000FB0180C0B200900AF13000C2B22B465F
:1033E00002990098FFF757FF601CC4B2B442D6DBC5
:1033F000002415E0202090FBF5F0AB4605EBDB71D7
:1034000000EB6100801EA119491C00FB0180C0B2C5
:103410002B46202200900299FFF73DFF601CC4B2AA
:10342000A9EB0600A042E5DC4CE000242CE0000003
:10343000000C0140448000081C7E0008301B401E28
:10344000C1B20A20FFF774FF97FBF0F00A2190FB4E
:10345000F1F201FB120000F0FF0A202090FBF5F0D2
:10346000AB4605EBDB7100EB6100801E00FB0480C6
:10347000C0B200900AF13000C2B22B460299009807
:10348000FFF709FF601CC4B2B442D7DB002415E08B
:10349000202090FBF5F005EBD57100EB6100801E5C
:1034A000A11900FB018000F0FF0B2B4620220095A4
:1034B00058460299FFF7EFFE601CC4B2A9EB060064
:1034C000A042E5DC05B0BDE8F08F2DE9FF5F0746BF
:1034D000914698460E9C002539E0A8EB0500401E59
:1034E000C1B21020FFF724FFB9FBF0F000F00F0687
:1034F0000A2E15D2202090FBF4F0A24604EBDA71DC
:1035000000EB6100801E00FB057000F0FF0B06F170
:103510003000C2B2234658460199FFF7BCFE14E0C2
:10352000202090FBF4F0A24604EBDA7100EB61007E
:10353000801E00FB057000F0FF0B06F13700C2B2E1
:10354000234658460199FFF7A6FE681CC5B24545BB
:10355000C3DBBDE8FF9F2DE9FF4F87B007469146CB
:103560001E46DDE914A500200690484602F0F4FC52
:103570000590002437E0301B401EC1B20A20FFF73F
:10358000D7FE059991FBF0F00A2190FBF1F201FBC7
:10359000120000F0FF080698A0B9701EA04211DDCD
:1035A000B8F1000F0CD105EBD571491001FB047186
:1035B000C8B22B46202204950899FFF76CFE10E054
:1035C0000120069005EBD571491001FB0471C8B2CA
:1035D00008F13001CAB22B4604950899FFF75BFE4B
:1035E00000BF601CC4B2B442C5DB05EBD571491005
:1035F00001FB0671C8B22B462E2204950899FFF7ED
:103600004AFE51460A20FFF793FE019002F08EFC1D
:103610000390059802F08AFC4946019002F0A1FB54
:103620000290039902F0A0FB049002F095FC8346FF
:10363000002421E0AAEB0400401EC1B20A20FFF7DB
:1036400077FE9BFBF0F00A2190FBF1F201FB1200E8
:1036500000F0FF0805EBD5714910A31901FB0371B8
:10366000491DC8B208F13001CAB22B460495089929
:10367000FFF711FE601CC4B25445DBDB0BB0BDE8A4
:10368000F08F2DE9F0410546884616461C46002776
:1036900018E0F25D234641462846FFF7FCFD202155
:1036A00091FBF4F1204604EBD07201EB6201891E1C
:1036B0002944CDB2782D04DD002508F1020000F088
:1036C000FF087F1CF05D0028E3D1BDE8F0812DE903
:1036D000F05F06460F4690461C46DDF828A04FF0E6
:1036E000000BE11704EB5171C910A4EBC10131B912
:1036F0002046E11704EB5171C1F3C70406E02046F0
:10370000E11704EB5171C910491CCCB23D4617E0DA
:1037100029463046FFF751FDB1460BE059460BF103
:10372000010B1AF801000121FFF71BFD09F101004F
:1037300000F0FF0906EB08004845EFDC681CC5B245
:103740003819A842E4DCBDE8F09F08B50121082043
:10375000FDF7B4FD4FF48040ADF8000010208DF867
:10376000030003208DF8020069464548FDF7EAFA98
:103770004FF40050ADF8000010208DF80300032036
:103780008DF8020069463E48FDF7DCFA4FF48041AF
:103790003B48FDF784FB4FF400513948FDF77FFBB0
:1037A000C820FFF7C4F80021AE20FFF7DAFC0021A3
:1037B0000846FFF7D6FC00211020FFF7D2FC0021BD
:1037C0004020FFF7CEFC0021B020FFF7CAFC00210B
:1037D0008120FFF7C6FC0021FF20FFF7C2FC00217B
:1037E000A120FFF7BEFC0021A620FFF7BAFC0021B4
:1037F000A820FFF7B6FC00213F20FFF7B2FC002114
:10380000C820FFF7AEFC0021D320FFF7AAFC00215F
:103810000846FFF7A6FC0021D520FFF7A2FC0021F7
:103820008020FFF79EFC0021D820FFF79AFC0021A2
:103830000520FFF796FC0021D920FFF792FC00211C
:10384000F120FFF78EFC0021DA20FFF78AFC00212F
:103850001220FFF786FC0021DB20FFF782FC00210D
:103860003020FFF77EFC00218D20FFF77AFC00213D
:103870001420FFF776FC0021AF20FFF772FC08BD93
:10388000000C014010B500247A48006820F0F000D8
:10389000784908600846006840F04000086004E08D
:1038A000601CC4B20120FFF71EF87348006808B11D
:1038B000642CF5DB642C01DB012010BD002404E046
:1038C000601CC4B20120FFF70EF86B48006808B90D
:1038D000642CF5DB642C01DB0120EEE70020ECE733
:1038E00010B56448006820F0F0006249086008469E
:1038F000006840F03000086000205F4980310860B7
:103900001E20FFF714F801205C49C1F884011E2035
:10391000FEF7E9FF10BD08B501210420FDF7CEFC3C
:103920000220ADF8000010208DF8030003208DF870
:10393000020069464F48FDF705FA02214D48FDF7A0
:10394000AEFAFFF7CDFFFFF79DFF08BD10B50024CD
:1039500004E0601CC4B20120FEF7C5FF46480068C1
:1039600008B1642CF5DB002404E0601CC4B2012023
:10397000FEF7B9FF4048006808B9642CF5DB282041
:10398000FEF7B1FF3C48006808B1012010BD0020DF
:10399000FCE770B50024002506E06006040EFFF782
:1039A000D5FF0443681CC5B2082DF6DB204670BD68
:1039B0002DE9FC4104460D46002028602060FFF7F9
:1039C0008FFFFFF75FFF00284FD1002605E0FFF7CC
:1039D000E0FF0DF80600701CC6B2052EF7DB9DF85F
:1039E00000009DF8011008449DF8021008449DF85D
:1039F00003100844C7B29DF80400B8421AD19DF8DC
:103A000001109DF8002001EB022002F08FFA8046A1
:103A10001B4902F0DBF928609DF803109DF8022095
:103A200001EB022002F082FA8046154902F0CEF93D
:103A300020601DE09DF801109DF8002001EB0220A0
:103A400002F074FA80460E4902F0C0F928609DF831
:103A500003109DF8022001EB022002F067FA804675
:103A6000074902F0B3F9206002E00120BDE8FC81C3
:103A70000020FBE700080140040121420000214230
:103A80000000204110B500240020D149086090209A
:103A9000FFF7DCF80020FFF7D9F80020FFF7D6F891
:103AA0000020FFF7D3F8FF20FFF7D0F844EA002406
:103AB000FF20FFF7CBF804430120C649C1F8BC0141
:103AC000204610BD08B501210420FDF7F7FB0121B8
:103AD0000846FDF7F3FB0121BF48FDF704FA4FF458
:103AE0000040ADF8000010208DF8030003208DF891
:103AF00002006946B948FDF725F94FF40041B7487F
:103B0000FDF7CDF9FFF7C9F80820FFF70EF9FFF729
:103B1000B9FFB349088008BD10B500240020AC49A6
:103B200008600520FFF792F8FF20FFF78FF80446A2
:103B30000120A849C1F8BC01204610BD10B50446BB
:103B40000020A34908600120FFF780F82046FFF716
:103B50007DF801209F49C1F8BC0110BD10B50020BF
:103B60009B4908600620FFF771F801209949C1F8C8
:103B7000BC0110BD10B50020954908600420FFF776
:103B800065F801209349C1F8BC0110BD2DE9F04151
:103B900006460C46174600208D4908600320FFF7B3
:103BA00055F8C4F30740FFF751F8C4F30720FFF7B7
:103BB0004DF8E0B2FFF74AF8002505E0FF20FFF7D7
:103BC00045F87055681C85B2BD42F7DB012080497D
:103BD0000860BDE8F08110B500BFFFF79DFF00F061
:103BE00001000028F9D110BD2DE9F04106460C4630
:103BF0001746FFF7B3FF0020754908600220FFF762
:103C000025F8C4F30740FFF721F8C4F30720FFF7B6
:103C10001DF8E0B2FFF71AF8002504E0705DFFF729
:103C200015F8681C85B2BD42F8DB012068490860C0
:103C3000FFF7D1FFBDE8F0812DE9F04107460E46C0
:103C40001446F0B2C0F58075AC4200DC254612E0A7
:103C50002A4631463846FFF7C7FFAC4200D10BE099
:103C60002F442E44601B84B2B4F5807F02DD4FF4F4
:103C7000807500E02546EBE700BFBDE8F08110B598
:103C800004462403FFF76AFFFFF7A5FF0020504911
:103C900008602020FEF7DAFFC4F30740FEF7D6FFE6
:103CA000C4F30720FEF7D2FFE0B2FEF7CFFF0120FA
:103CB0004849C1F8BC01FFF78EFF10BD2DE9F05F48
:103CC00081460F461646DFF81CB14FEA1738C7F396
:103CD0000B0ACAF58054A64200DC344644E04FEAA1
:103CE00008314FF480525846FFF750FF002508E096
:103CF0000AEB05001BF80000FF2800D003E0681C59
:103D000085B2A542F4DB00BFA54216DA4046FFF7B4
:103D1000B6FF002507E019F8050005EB0A010BF8CE
:103D20000100681C85B2A542F5DB4FEA08314FF46B
:103D300080525846FFF780FF04E022463946484645
:103D4000FFF77AFFA64200D10FE008F101084FF01B
:103D5000000AA1442744301B86B2B6F5805F02DD1D
:103D60004FF4805400E03446B9E700BFBDE8F09F4F
:103D700010B5FFF7F3FEFFF72EFF0020144908608F
:103D8000C720FEF763FF01201249C1F8BC01FFF70D
:103D900022FF10BD10B500200D490860B920FEF7C4
:103DA00055FF01200B49C1F8BC010320FEF79BFD24
:103DB00010BD10B5002006490860AB20FEF746FF95
:103DC00001200449C1F8BC010320FEF78CFD10BDA1
:103DD000BC012142000021420002300000080140E5
:103DE00090000020A801002008B501210420FDF763
:103DF00065FA4020ADF8000028208DF8030003206C
:103E00008DF802006946F748FCF79CFF08BD00BF2B
:103E1000F549098801F040010029F9D0F249091D4E
:103E20000880704710B5EF20FFF7F1FF0120FFF782
:103E3000EEFF10BD10B5ED490968080EFFF7E7FF6A
:103E4000EA480068C0F30740FFF7E1FFE748008851
:103E5000C0F30720FFF7DBFFE4490878FFF7D7FF3F
:103E600010BD10B504462046FFF7D1FF10BD10B5B8
:103E70000446C4F30720FFF7CAFFE0B2FFF7C7FF0D
:103E800010BD10B504462046FFF7C1FF10BD10B5A8
:103E900004462012FFF7BBFFE0B2FFF7B8FF10BDEA
:103EA0007CB50546EF208DF8000001208DF801005B
:103EB000CE480068000E8DF80200CC480068000C67
:103EC0008DF80300C9480088000A8DF80400C7482F
:103ED00000788DF8050007208DF8060000208DF889
:103EE0000700C349088012E00120FEF720FDC0480A
:103EF000008800F4004050B10020BD4908806946A8
:103F0000BC4801F0EFFD04460CB120467CBD681EA4
:103F100080B2051EE8D100BFF8E770B5FFF782FF59
:103F2000FFF788FF0120FFF79CFF0320FFF79FFFAB
:103F30000120FFF7A6FF05263046FFF7A8FF4FF444
:103F4000FA60FFF7ADFF05460DB16C7A00E0FF2483
:103F5000204670BD2DE9F0410546FFF763FFFFF7EE
:103F600069FF0120FFF77DFF0420FFF780FF02209B
:103F7000FFF787FF2846FFF74AFFEF1D3846FFF798
:103F800086FF4FF4FA60FFF78BFF06460EB1747A96
:103F900000E0FF242046BDE8F08170B5FFF742FF46
:103FA000FFF748FF0120FFF75CFF0320FFF75FFFEB
:103FB0000320FFF766FF07263046FFF768FF4FF440
:103FC000FA60FFF76DFF05460DB16C7A00E0FF2443
:103FD000204670BD2DE9F04781460D4616461F4626
:103FE000FFF720FFFFF726FF0120FFF73AFF082029
:103FF000FFF73DFF0420FFF744FF4846FFF707FFA8
:104000002812FFF704FFE8B2FFF701FF3012FFF7B5
:10401000FEFEF0B2FFF7FBFE09F10D0000EB2520DC
:10402000E9B2084400EB2620F1B200EB010A504649
:10403000FFF72DFF4FF4FA60FFF732FF044664B13B
:1040400094F80980E07AA17A00EB01203880607B47
:10405000217B00EB0120788001E04FF0FF08404613
:10406000BDE8F08770B5FFF7DDFEFFF7E3FE012046
:10407000FFF7F7FE0320FFF7FAFE0520FFF701FF29
:1040800009263046FFF703FF4FF4FA60FFF708FFF9
:1040900005460DB16C7A00E0FF24204670BD2DE985
:1040A000F04106460C46FFF7BDFEFFF7C3FE0120B8
:1040B000FFF7D7FE0620FFF7DAFE0620FFF7E1FE46
:1040C0003046FFF7A4FE2012FFF7A1FEE0B2FFF793
:1040D0009EFE06F10D0000EB2420E1B200EB01088A
:1040E0004046FFF7D4FE4FF4FA60FFF7D9FE0746CB
:1040F0000FB17D7A00E0FF252846BDE8F0812DE96B
:10410000F04104460D46FFF78DFEFFF793FE0120B8
:10411000FFF7A7FE0720FFF7AAFE0C20FFF7B1FE6E
:104120002012FFF774FEE0B2FFF771FE2812FFF7CE
:104130006EFEE8B2FFF76BFE142000EB2420E1B224
:10414000084400EB2520E9B200EB01084046FFF7E8
:104150009EFE4FF4FA60FFF7A3FE07460FB17E7A8A
:1041600000E0FF263046BDE8F08170B5FFF75AFE4B
:10417000FFF760FE0120FFF774FE0320FFF777FED4
:104180000D20FFF77EFE11263046FFF780FE4FF42C
:10419000FA60FFF785FE05460DB16C7A00E0FF245A
:1041A000204670BD014621297BD2DFE801F01113C2
:1041B00015171957595B5D5F61637A7A7A7A65677B
:1041C0007A7A7A697A7A6B6D7072747A7A76780014
:1041D00009A068E00DA066E011A064E015A062E00F
:1041E00019A060E00008014000480040980000204D
:1041F000A2000020A8110020202020202020204FF5
:104200004B202020202020200000000020CAFDBEDE
:10421000DDB0FCBDD3CAD5B4EDCEF3200000000064
:10422000B4ABB8D0C6F7C9CFC3BBD3D0CAD6D6B803
:1042300000000000C2BCC8EBD6B8CEC6CDBCCFF1E2
:10424000CAA7B0DC0000000020D6B8CEC6CCABB800
:10425000C9BBF2CCABB5AD2000000000BAA022E093
:10426000BEA020E0C2A01EE0C6A01CE0CAA01AE0CA
:10427000CEA018E0D2A000BFD6A014E0DAA012E0D1
:10428000DEA010E0E2A00EE0E6A00CE009E0EAA06B
:1042900009E0EEA007E0F2A005E0F6A003E0FAA036
:1042A00001E0FEA000BF00BF70472DE9F0470646C1
:1042B0000D46FFF7B7FDFFF7BDFD0120FFF7D1FD6C
:1042C0000520FFF7D4FD0E20FFF7DBFD3046FFF79A
:1042D0009EFD2846FFF79BFD701900F1140840462B
:1042E000FFF7D5FD4FF4FA60FFF7DAFD07460FB18F
:1042F0007C7A00E0FF241CB9EDA002F059FB07E036
:104300002046FFF74FFF81464946EEA002F050FBE2
:104310002046BDE8F0872DE9F0410546FFF782FD14
:10432000FFF788FD0120FFF79CFD0320FFF79FFDAD
:104330000F20FFF7A6FD13273846FFF7A8FD4FF41F
:104340007A70FFF7ADFD0446BCB1667AE07BA17BD5
:1043500000EB01202880607CA870A07C0006E17C36
:1043600000EB0140217D00EB0120617D0844686085
:10437000E07D2872607E687200E0FF26A6B9298879
:10438000D2A002F015FBA978D6A002F011FBD9A0AB
:10439000696802F00DFB687A4FF4165200FB02F1D7
:1043A000D7A002F005FB07E03046FFF7FBFE804692
:1043B0004146C4A002F0FCFA3046BDE8F0812DE988
:1043C000F0410446FFF72EFDFFF734FD0120FFF713
:1043D00048FD0720FFF74BFD1520FFF752FD200E8B
:1043E000FFF715FDC4F30740FFF711FDC4F30720E5
:1043F000FFF70DFDE0B2FFF70AFD1D2000EB146092
:10440000C4F307410844C4F307210844E1B2471844
:104410003846FFF73CFDBD4804604FF4FA60FFF7F3
:104420003FFD06460EB1757A00E0FF25B7480460EF
:104430001DB9B7A002F0BCFA07E02846FFF7B2FEAC
:10444000804641469FA002F0B3FA2846BDE8F081BD
:104450002DE9F04781460E46FFF7E4FCFFF7EAFC42
:104460000120FFF7FEFC2420FFF701FD1820FFF7D5
:1044700008FD4846FFF7CBFC002407E0305DFFF75E
:10448000C6FC305D384487B2601CC4B2202CF5DB1A
:1044900009F13D00384487B23846FFF7F8FC4FF485
:1044A000FA60FFF7FDFC054615B195F8098001E0BB
:1044B0004FF0FF084046BDE8F0872DE9F04707467A
:1044C0008846FFF7AFFCFFF7B5FC0120FFF7C9FCFA
:1044D0000420FFF7CCFC1920FFF7D3FC3846FFF788
:1044E00096FC07F11E094846FFF7D1FC4FF4FA602D
:1044F000FFF7D6FC064666B1757A002406E004F1A3
:104500000A00305C08F80400601CC4B2202CF6DB02
:1045100000E0FF252846BDE8F0872DE9F0478146F9
:104520000D4616461F46FFF77DFCFFF783FC012072
:10453000FFF797FC0820FFF79AFC1B20FFF7A1FC70
:104540004846FFF764FCEDE020D6B8CEC6CCABCA37
:10455000AABBF2CCABBAFD20000000002020D6B8E8
:10456000CEC6CDBCCFF1CCABC2D220200000000023
:1045700020D6B8CEC6CCD8D5F7B5E3CCABC9D920B8
:10458000000000002020D6B8CEC6B2BBC6A5C5E448
:10459000202020200000000020C3BBD3D0CBD1CBF3
:1045A000F7B5BDD6B8CEC62000000000202020CC34
:1045B000D8D5F7BACFB2A2CAA7B0DC20000000005D
:1045C000B5D8D6B7D0F2BAC5B3ACB3F6B7B6CEA7A6
:1045D000000000002020C9BEB3FDC4A3B0E5CAA7F7
:1045E000B0DC20200000000020C7E5BFD5D6B8CE43
:1045F000C6BFE2CAA7B0DC2000000000BBBAB3E52A
:10460000C7F8C4DACEDED3D0D0A7CDBC00000000FE
:1046100020B6C1D0B4464C415348B3F6B4ED202087
:1046200000000000202020CEB4B6A8D2E5B4EDCE24
:10463000F3202020000000002020CEDED0A7BCC444
:10464000B4E6C6F7BAC520200000000020BCC4B400
:10465000E6C6F7C4DAC8DDB4EDCEF32000000000F2
:1046600020BCC7CAC2B1BED2B3C2EBB4EDCEF320F8
:104670000000000020202020D6B8CEC6BFE2C2FA3B
:10468000202020200000000020202020B5D8D6B710
:10469000B4EDCEF3202020200000000020B7B5BBF1
:1046A000D8C8B7C8CFC2EBD3D0CEF32000000000EB
:1046B0000D0AC9E8D6C3B2CECAFDB3C9B9A6A3A133
:1046C000000000000D0A2573000000000D0AC4A3BD
:1046D000BFE9D7EEB4F3D6B8CEC6C8DDC1BF3D251D
:1046E000640000000D0AB6D4B1C8B5C8BCB63D25FB
:1046F000640000000D0AB5D8D6B73D25780000004B
:104700000D0AB2A8CCD8C2CA3D256400980000208A
:104710000D0AC9E8D6C3B5D8D6B7B3C9B9A6A3A1FF
:10472000000000002812FFF772FBE8B2FFF76FFBF2
:104730003012FFF76CFBF0B2FFF769FB09F12400C0
:1047400000EB2520E9B2084400EB2620F1B200EB93
:10475000010A5046FFF79BFB4FF4FA60FFF7A0FBFE
:10476000044664B194F80980E07AA17A00EB012054
:104770003880607B217B00EB0120788001E04FF0E6
:10478000FF084046BDE8F0872DE9F0410646FFF7F7
:1047900049FBFFF74FFB0120FFF763FB0320FFF707
:1047A00066FB1D20FFF76DFB21273846FFF76FFBE7
:1047B0004FF4FA60FFF774FB044634B1657AE07A8F
:1047C000A17A00EB0120308000E0FF253DB9E07ABE
:1047D000A27A00EB0221FDA002F0EAF808E02846E8
:1047E000FFF7E0FC80464146AFF2281002F0E0F807
:1047F0002846BDE8F08110B50446FFF713FBFFF72C
:1048000019FB0120FFF703FB0020FFF700FB00204E
:10481000FFF7FDFAC820FEF78AF8F148008800F497
:10482000004008B3EF480078EF281AD1ED484078EF
:10483000012816D1EB488079072812D1E948807801
:104840000006E849C97800EB0140E649097900EB28
:104850000120E4494979084420600020E0490880AB
:1048600010BD0020DE4908800120F9E770472DE9DE
:10487000F8434FF000080026B146DBA002F098F89C
:1048800002E0DBA002F094F8FEF7B4FA041EF8D1BF
:1048900019E2FEF7AFFA044624B1D7A002F088F877
:1048A000BDE8F883B8F1050F36D2DFE808F003362B
:1048B00069B8FD00781CC7B2FEF7AFFCD1481023E1
:1048C0004022022100902020FEF701FFFFF725FB88
:1048D0000546F5B90120FFF73DFB0546ADB9FEF7EA
:1048E0009CFCC94810232022022100901046FEF7AC
:1048F000EEFEC54810232022022100904020FEF742
:10490000E6FE00274FF0010806E02846FFF7AEFF5D
:1049100002E02846FFF7AAFFCDE1781CC7B2FEF7F8
:104920007CFCBA4810235022022100901846FEF762
:10493000CEFEFFF7F2FA0546F5B90220FFF70AFBB3
:104940000546ADB9FEF769FCAF48102320220221CD
:1049500000901046FEF7BBFEAD4810232022022136
:1049600000904020FEF7B3FE00274FF0020806E05B
:104970002846FFF77BFF02E02846FFF777FF9AE122
:10498000FEF74BFCA348102320220221009018467A
:10499000FEF79DFEA0481023202202210090302027
:1049A000FEF795FE98481023202202210090502007
:1049B000FEF78DFEFFF7F1FA0546A5B9FEF72DFCCF
:1049C000944810232022022100901846FEF77FFE13
:1049D000924810232022022100903020FEF777FE1B
:1049E0004FF0030816E0FEF718FC8A481023202237
:1049F000022100901846FEF76AFE89481023202203
:104A0000022100903020FEF762FE2846FFF72EFFBD
:104A10000027B8464FF4FA70FDF789FF4BE1FEF727
:104A2000FCFB804810232022022100901846FEF74C
:104A30004EFE754810232022022100903020FEF700
:104A400046FE794810232022022100905020FEF7D4
:104A50003EFE4FF4FA70FDF76AFFFFF703FB0546D1
:104A600035BBFEF7DAFB6F481023202202210090AD
:104A70000020FEF72CFE6448102320220221009023
:104A80001046FEF724FE68481023202202210090E1
:104A90004020FEF71CFE61481023202202210090D6
:104AA0006020FEF714FE00E02EE04FF0040826E040
:104AB0004FF00008FEF7B1FB5A48102320220221D4
:104AC00000900020FEF703FE4F4810232022022111
:104AD00000901046FEF7FBFD5348102320220221D0
:104AE00000904020FEF7F3FD4D48102320220221C4
:104AF00000906020FEF7EBFD2846FFF7B7FE4FF46D
:104B00007A70FDF714FFD6E0FEF787FB47481023C5
:104B10003022022100901846FEF7D9FD3A481023B2
:104B20002022022100904020FEF7D1FD102340A258
:104B300002216420FEF7A5FDBAE0FEF75BF904460A
:104B40000A20FDF7F4FE21463AA001F031FF002CC7
:104B500024D0FEF74FF9002820D1214637A001F0DC
:104B600027FF302C1BDB392C19DC06EB86004600B6
:104B7000A4F130003044C6B2314633A001F018FF32
:104B8000102334A206212820FEF77BFD10200223EB
:104B90003246062100904120FEF7D5FB88E0232C09
:104BA00079D1FEF73AFB2CA001F002FF314602203A
:104BB000FFF775FA054645B9FEF72FFB2848102385
:104BC00020220221009018464CE065E00D0AD3D067
:104BD000D0A7D6B8CEC6B8F6CAFD3D256400000001
:104BE000A2000020A81100204164645F46520A0020
:104BF000CFFBB6B6D6D00A00CDCBB3F6B9A6C4DC8F
:104C00000A000000F486000874870008F487000892
:104C1000B487000894880008D48800081489000824
:104C20005489000894890008D4890008948F0008EA
:104C300049443A006368723A25630A006368723136
:104C40003A25630A0000000049445F4E554D3A255D
:104C5000640A000049443D00B3C9B9A60A00000037
:104C6000148A0008FEF733FDD748102320220221C2
:104C700000903020FEF72BFDD44810232022022183
:104C800000905020FEF723FD40F2DC50FDF74FFE70
:104C9000FEF7C3FA04E607E0FEF7BFFA4FF000089C
:104CA0002846FFF7E3FD04E0B9F12A0F00D1002602
:104CB00043E700BF00BF00BF4FF4C870FDF737FEE9
:104CC0000A2F00D100E0E4E500BF00BFE8E57CB5B5
:104CD0000025A5E0FFF721F90446002C77D101203B
:104CE000FFF738F90446002C73D101AB6322002191
:104CF0000120FFF712FC0446002C47D15A2000F097
:104D0000B1FEFEF78AFAB04810232022022100905B
:104D10001846FEF7DCFCAE4810232022022100904A
:104D20003020FEF7D4FCA948102320220221009055
:104D30005020FEF7CCFC1023AFF20C1204211846D1
:104D4000FEF79FFC10200090BDF8042002230421F0
:104D50004020FEF7F8FA9F481023202206210090F9
:104D60001846FEF7B4FC10200090BDF8062003237F
:104D700006214020FEF7E7FA4FF47A70FDF7D7FDE1
:104D8000FEF74BFA002000F06DFE4AE0FEF745FA10
:104D90008D4810232022022100901846FEF797FC30
:104DA0008B4810232022022100903020FEF78FFC38
:104DB000894810232022022100905020FEF787FC12
:104DC00040F2DC50FDF7B3FDFEF727FA29E023E0BF
:104DD000FFE7642D20D1FEF720FA7B481023202224
:104DE000022100901846FEF772FC7C481023202216
:104DF000022100903020FEF76AFC77481023202221
:104E0000022100905020FEF762FC4FF47A70FDF70B
:104E10008EFDFEF702FA04E00120FDF788FD6D1C0F
:104E200058E700BFFEF7F9F97CBDF8B500256CA086
:104E300001F0BEFD00BFFDF7DDFF041EFBD1FEF754
:104E4000ECF9694810233022022100901846FEF741
:104E50003EFC5D4810232022022100904020FEF7F6
:104E600036FC1023AFF2382202216420FEF709FC41
:104E7000A4E0FDF7BFFF04460A20FDF758FD002C13
:104E8000F6D0FDF7B7FF0028F2D1302C19DB392C12
:104E900017DC05EB85004FF6FF7101EA4005A4F130
:104EA0003000284485B2102003232A4604210090B4
:104EB0002020FEF748FA2946AFF2742001F078FD71
:104EC0007CE0422C48D149A001F072FDFFF74DF97A
:104ED000064606BBFEF7A1F947481023202206210B
:104EE00000901846FEF7F3FB3748102320220621D6
:104EF00000903020FEF7EBFB3448102320220621DF
:104F000000905020FEF7E3FB40F2DC50FDF70FFD70
:104F1000FEF783F953E0FEF780F93748102320228B
:104F2000022100901846FEF7D2FB274810232022CA
:104F3000022100903020FEF7CAFB274810232022D0
:104F4000022100905020FEF7C2FB40F2DC50FDF73A
:104F5000EEFCFEF762F932E0232C2CD10121284629
:104F6000FFF7CDF8064616BB244810232022062161
:104F700000901846FEF7ABFB1348102320220621B1
:104F800000903020FEF7A3FB1048102320220621BA
:104F900000905020FEF79BFB40F2DC50FDF7C7FC71
:104FA00040F2DC50FDF7C3FCFEF737F907E030466E
:104FB000FFF75CFC03E02A2C00D100E059E700BFBA
:104FC000FEF72BF9F8BD000074870008148900086B
:104FD000548A0008948A00085489000894900008B4
:104FE00064656C50660A0000948F0008C7E5BFD561
:104FF000D6B8CEC6BFE20A00D48A0008B48B000837
:1050000010B540F225515748FDF710FCF8B155484E
:10501000FDF78CFBC4B25448008800F40040B0B9DE
:1050200051480088B0F5C87F12DA00214F48FDF7DB
:10503000F3F94D48008818B901214C48FCF758FF96
:1050400049490888411C484A118049490C5405E0E7
:105050004548008840F400404349088010BD10B521
:1050600086B0044601210820FCF728F901218804B4
:10507000FCF731F93B48FDF719FA4FF48060ADF8C1
:10508000100003208DF8120018208DF8130004A9D9
:105090003848FBF757FE4FF40060ADF810000420CD
:1050A0008DF8130004A93348FBF74CFE0094002050
:1050B000ADF80400ADF80600ADF80800ADF80C003E
:1050C0000C20ADF80A0069462648FDF732FA0121A6
:1050D0002448FDF7BAFA012240F225512148FDF794
:1050E000C0FA27208DF8140002208DF81500032047
:1050F0008DF8160001208DF8170005A8FBF731FB8D
:1051000041F61F41632000F039F80020164908805D
:1051100000211648FCF7ECFE06B010BD0FB438B500
:1051200005A800901448009A049901F065FC00203D
:105130000090114800F0E8FC85B200240DE000BFAB
:1051400040210848FDF75CFB0028F9D00A48015DC2
:105150000448FDF7E7FA601C84B2AC42EFDB38BCD0
:105160005DF814FB00480040A2000020001400403D
:10517000A8110020000C0140381300207FB505461F
:105180000C4601212020FCF7A6F8ADF80450ADF83C
:1051900000400020ADF80600ADF802006946334833
:1051A000FCF74AFB012211463048FCF7BCFE012106
:1051B0002E48FCF79DFE37208DF80C0003208DF85B
:1051C0000D008DF80E0001208DF80F0003A8FBF7ED
:1051D000C8FA7FBD7FB505460C4601210220FCF7C9
:1051E0007AF8ADF80850ADF804400020ADF80A0098
:1051F000ADF8060001A91E48FCF71EFB012211466E
:105200001B48FCF790FE1D208DF8000000208DF853
:10521000010001208DF802008DF803006846FBF7BD
:10522000A0FA01211248FCF763FE7FBD10B50121F1
:105230000E48FDF726F968B10E48008840F400409A
:105240000C49088001210948FDF72CF90021074885
:10525000FCF74EFE10BD10B501210548FDF711F910
:1052600018B101210248FDF71DF910BD00140040DE
:1052700000040040A200002070B586B00646354606
:105280000024FEA001F094FBFDF7C7FFFE481023A9
:105290006022022100901846FEF719FA8AE0002DDC
:1052A0007DD0FDF7A7FD00287ED1302D66DB392D9E
:1052B00064DC04A8055504AB22462946F3A001F09E
:1052C00077FB202101EB0411C8B210232A2204210C
:1052D000FDF7E1FF601CC4B2042C65D1002004A9D5
:1052E0000855002404AAF0A102A801F071FBEF49BF
:1052F00002A800F010FC60BBEDA001F059FBED48E6
:10530000007810B15A2000F0ADFB1420FDF70FFB20
:10531000FDF783FFE848102340220221009020205F
:10532000FEF7D5F94FF47A70FDF701FB4FF47A7070
:10533000FDF7FDFA4FF47A70FDF7F9FAFDF76DFF0E
:10534000DC48007810B1002000F08CFB012006B092
:1053500070BDDAA001F02CFBFDF75FFFDB481023E6
:105360004022022100902020FEF7B1F940F2DC50EB
:10537000FDF7DDFAFDF751FF0020E8E72A2D13D1F4
:10538000FDF74BFFD248102330220221009020204D
:10539000FEF79DF94FF47A70FDF7C9FA00E003E0DB
:1053A000FDF73BFF0020D2E7FDF724FD05460A206C
:1053B000FDF7BDFA73E770B586B000250026002022
:1053C000FFF75AFF0646002E7DD0FDF726FF78E056
:1053D000FDF710FD04460A20FDF7A9FABD48102389
:1053E0007022022100901846FEF771F9002C68D057
:1053F000FDF700FD002864D1302C14DB392C12DCC1
:1054000004A8445529012031C8B2102322460421A2
:10541000FDF741FF04AB2A4621469CA001F0C8FAE3
:10542000681CC5B21BE02A2C19D1FDF7F6FEA8486E
:1054300010233022022100901846FEF748F9A648B2
:1054400010232022022100904020FEF740F94FF463
:105450007A70FDF76CFAFDF7E0FE06B070BD042D22
:105460002FD1FDF7DAFE002004A94855002504AA33
:105470008DA102A801F0ACFA98480068A0F164017F
:10548000052204A8FEF71AFC94480068A0F1640104
:1054900005228648FEF77AFB0026844990A001F099
:1054A00087FA934810236022022100901846FEF7E5
:1054B0000EF940F2DC50FDF73AFAFDF7AEFE01E0DE
:1054C00001E085E700BF00BFC7E738B5002589A028
:1054D00001F06EFAFDF7A1FE894810232022022177
:1054E00000900020FEF7F3F88648102320220221C6
:1054F00000901046FEF7EBF86BE0FDF77BFC0446EE
:105500000A20FDF714FA002C63D0FDF773FC002885
:105510005FD1302C10DB392C0EDC05EB850045000B
:10552000A4F130000544102002232A4619460090B9
:105530004A20FDF708FF4CE0232C2FD1FDF76DFE2C
:105540007148056071A10268714801F041FA634831
:105550000068A0F1320103226D48FEF7AFFB6948F5
:1055600010232022022100900020FEF7B0F86448AA
:1055700010232022022100901046FEF7A8F865486B
:1055800010232022022100904020FEF7A0F840F2D4
:10559000DC50FDF7CCF9FDF740FE1BE02A2C18D1BA
:1055A000FDF73BFE4A4810233022022100901846A6
:1055B000FEF78DF848481023202202210090402059
:1055C000FEF785F84FF47A70FDF7B1F9FDF725FE87
:1055D00038BD92E700BF00BFFAE738B5002545A007
:1055E00001F0E6F9FDF719FE4548102320220221BB
:1055F00000900020FEF76BF847481023202202217C
:1056000000901046FEF763F8C1E0FDF7F3FB044697
:105610000A20FDF78CF9002C15D0FDF7EBFB0028D4
:1056200011D1302C10DB392C0EDC05EB8500450048
:10563000A4F130000544102002232A4619460090A8
:105640004A20FDF780FEA2E0232C6BD1FDF7E5FD9B
:10565000324805602DA10268314801F0B9F91F48B0
:105660000068A0F1190103222D48FEF727FB2A4804
:105670001023202202210090002054E0696E7075F2
:10568000745077640A000000F48B00086368723A73
:1056900025632C6C656E3A25642C497075507764CF
:1056A0003A25730A0000000025730000C2000020A4
:1056B0006F6B0A00A4000020B48C00087061737343
:1056C000776F7264206572726F720A00D48E000860
:1056D000F48F0008348D00085490000894000020D6
:1056E0007077645F496E69743A25730D0A00000093
:1056F000148E00086368616E676554656D70000004
:10570000548F000834860008B4000020256400008F
:10571000BC0000201489000874860008B80000202E
:10572000BF00002018E0FDF7D2FF9348102320228D
:10573000022100901046FDF7CAFF90481023202256
:10574000022100904020FDF7C2FF40F2DC50FDF73F
:10575000EEF8FDF762FD1BE02A2C18D1FDF75DFD88
:10576000874810233022022100901846FDF7AFFF32
:10577000844810232022022100904020FDF7A7FF3B
:105780004FF47A70FDF7D3F8FDF747FD38BD3CE7DD
:1057900000BF00BFFAE710B500240020FFF76CFD42
:1057A00004460CB1FFF763F810BD10B500240020CB
:1057B000FFF762FD04460CB1FFF737FB10BD1FB5C4
:1057C00001210820FBF787FD42F20F70ADF80800B9
:1057D00041F61F40ADF804000020ADF80A00ADF816
:1057E000060001A96848FCF727F80122114666481F
:1057F000FCF799FB32208DF8000003208DF80100A2
:1058000002208DF8020001208DF803006846FAF7A7
:10581000A8FF01215C48FCF76BFB1FBD2DE9FF478A
:1058200001215948FCF72DFE002833D05748006865
:10583000052805DA55480068401C5449086003E013
:10584000FDF7B2FB5249086052495348FEF7B0F8E1
:105850004F48006800F099FB04460D464D4800682B
:1058600000F093FB06460F464B48006800F08DFBA6
:10587000804642460B4649A14D48CDE90067CDE937
:10588000024501F0A5F84A48FDF7BBF901213E4861
:10589000FCF708FEBDE8FF8710B504462046432C00
:1058A00033D00EDC332823D006DC302811D0312849
:1058B00014D032285DD116E041281ED0422858D19C
:1058C0001FE04438062854D2DFE800F0283139536D
:1058D000414A02213748FBF7E2FA4AE00221354803
:1058E000FBF7DFFA45E004213248FBF7D8FA40E045
:1058F00004213048FBF7D5FA3BE001202E4908602F
:1059000037E000202C49086033E04FF400712B4849
:10591000FBF7C5FA01202A4908602AE04FF400711C
:105920002648FBF7BEFA00202549086021E0402107
:105930002248FBF7B4FA01202249086019E040210F
:105940001E48FBF7AEFA00201E49086011E04FF434
:10595000C0711A48FBF7A3FA01201B49086008E050
:105960004FF4C0711548FBF79CFA002016490860F7
:1059700000BF00BF10BD0000548F0008148900084C
:10598000F48F000854900008000C0040D80000205C
:10599000A8000020B0000020AC0000203C252E32E2
:1059A000662C252E32662C252E32663E0000000025
:1059B000C8140020000C0140C80000200010014065
:1059C000CC000020D0000020D400002000B589B019
:1059D00001210846FBF772FC01210820FBF76EFC51
:1059E00001210420FBF777FC4020ADF814001820BB
:1059F0008DF8170003208DF8160005A92148FBF744
:105A0000A1F940F2CF70ADF81C0040F2CF20ADF804
:105A100018000020ADF81E00ADF81A0006A91A48BB
:105A2000FBF70AFF012211461748FCF77CFA6020B9
:105A3000ADF804000120ADF806000220ADF80C001E
:105A400001A91148FBF735FF08210F48FCF780FB3F
:105A500001210D48FCF74CFB01210B48FCF748FAEB
:105A600009B000BD70B50446092094FBF0F040F287
:105A70009E71091B081A85B229460348FCF7D0FC21
:105A800070BD0000000C01400008004008B5012175
:105A90000820FBF713FC0620ADF8000010208DF85D
:105AA000030003208DF8020069460248FBF74AF91B
:105AB00008BD0000000C014008B501211020FBF7D3
:105AC000FDFB2020ADF8000010208DF8030003201E
:105AD0008DF8020069460248FBF734F908BD000062
